{
  "contractName": "healthify",
  "abi": [
    {
      "inputs": [],
      "stateMutability": "nonpayable",
      "type": "constructor"
    },
    {
      "inputs": [
        {
          "internalType": "string",
          "name": "",
          "type": "string"
        },
        {
          "internalType": "uint256",
          "name": "",
          "type": "uint256"
        }
      ],
      "name": "doc_log",
      "outputs": [
        {
          "internalType": "string",
          "name": "id",
          "type": "string"
        },
        {
          "internalType": "uint256",
          "name": "age",
          "type": "uint256"
        },
        {
          "internalType": "uint256",
          "name": "weight",
          "type": "uint256"
        },
        {
          "internalType": "uint256",
          "name": "height",
          "type": "uint256"
        },
        {
          "internalType": "string",
          "name": "bp",
          "type": "string"
        },
        {
          "internalType": "string",
          "name": "heartrate",
          "type": "string"
        },
        {
          "internalType": "uint256",
          "name": "temp",
          "type": "uint256"
        },
        {
          "internalType": "string",
          "name": "date",
          "type": "string"
        },
        {
          "internalType": "string",
          "name": "prescription",
          "type": "string"
        }
      ],
      "stateMutability": "view",
      "type": "function",
      "constant": true
    },
    {
      "inputs": [
        {
          "internalType": "uint256",
          "name": "",
          "type": "uint256"
        }
      ],
      "name": "doctor_register",
      "outputs": [
        {
          "internalType": "string",
          "name": "name",
          "type": "string"
        },
        {
          "internalType": "uint256",
          "name": "contact",
          "type": "uint256"
        },
        {
          "internalType": "string",
          "name": "id",
          "type": "string"
        },
        {
          "internalType": "string",
          "name": "password",
          "type": "string"
        },
        {
          "internalType": "address",
          "name": "adrr",
          "type": "address"
        }
      ],
      "stateMutability": "view",
      "type": "function",
      "constant": true
    },
    {
      "inputs": [
        {
          "internalType": "string",
          "name": "",
          "type": "string"
        }
      ],
      "name": "is_doctor_registered",
      "outputs": [
        {
          "internalType": "bool",
          "name": "",
          "type": "bool"
        }
      ],
      "stateMutability": "view",
      "type": "function",
      "constant": true
    },
    {
      "inputs": [
        {
          "internalType": "string",
          "name": "",
          "type": "string"
        }
      ],
      "name": "is_patient_registered",
      "outputs": [
        {
          "internalType": "bool",
          "name": "",
          "type": "bool"
        }
      ],
      "stateMutability": "view",
      "type": "function",
      "constant": true
    },
    {
      "inputs": [
        {
          "internalType": "string",
          "name": "",
          "type": "string"
        }
      ],
      "name": "numberOfRecords",
      "outputs": [
        {
          "internalType": "uint256",
          "name": "",
          "type": "uint256"
        }
      ],
      "stateMutability": "view",
      "type": "function",
      "constant": true
    },
    {
      "inputs": [],
      "name": "owner",
      "outputs": [
        {
          "internalType": "address",
          "name": "",
          "type": "address"
        }
      ],
      "stateMutability": "view",
      "type": "function",
      "constant": true
    },
    {
      "inputs": [
        {
          "internalType": "uint256",
          "name": "",
          "type": "uint256"
        }
      ],
      "name": "patient_register",
      "outputs": [
        {
          "internalType": "string",
          "name": "name",
          "type": "string"
        },
        {
          "internalType": "uint256",
          "name": "contact",
          "type": "uint256"
        },
        {
          "internalType": "string",
          "name": "id",
          "type": "string"
        },
        {
          "internalType": "string",
          "name": "password",
          "type": "string"
        },
        {
          "internalType": "address",
          "name": "adrr",
          "type": "address"
        }
      ],
      "stateMutability": "view",
      "type": "function",
      "constant": true
    },
    {
      "inputs": [
        {
          "internalType": "string",
          "name": "",
          "type": "string"
        }
      ],
      "name": "registered_id",
      "outputs": [
        {
          "internalType": "string",
          "name": "name",
          "type": "string"
        },
        {
          "internalType": "uint256",
          "name": "contact",
          "type": "uint256"
        },
        {
          "internalType": "string",
          "name": "id",
          "type": "string"
        },
        {
          "internalType": "string",
          "name": "password",
          "type": "string"
        },
        {
          "internalType": "address",
          "name": "adrr",
          "type": "address"
        }
      ],
      "stateMutability": "view",
      "type": "function",
      "constant": true
    },
    {
      "inputs": [
        {
          "internalType": "string",
          "name": "_name",
          "type": "string"
        },
        {
          "internalType": "uint256",
          "name": "_contact",
          "type": "uint256"
        },
        {
          "internalType": "string",
          "name": "_id",
          "type": "string"
        },
        {
          "internalType": "string",
          "name": "_password",
          "type": "string"
        }
      ],
      "name": "patientSignUp",
      "outputs": [],
      "stateMutability": "nonpayable",
      "type": "function"
    },
    {
      "inputs": [
        {
          "internalType": "string",
          "name": "_id",
          "type": "string"
        },
        {
          "internalType": "string",
          "name": "_password",
          "type": "string"
        }
      ],
      "name": "patientSignIn",
      "outputs": [
        {
          "internalType": "bool",
          "name": "",
          "type": "bool"
        }
      ],
      "stateMutability": "view",
      "type": "function",
      "constant": true
    },
    {
      "inputs": [
        {
          "internalType": "string",
          "name": "_name",
          "type": "string"
        },
        {
          "internalType": "uint256",
          "name": "_contact",
          "type": "uint256"
        },
        {
          "internalType": "string",
          "name": "_id",
          "type": "string"
        },
        {
          "internalType": "string",
          "name": "_password",
          "type": "string"
        }
      ],
      "name": "doctorSignUp",
      "outputs": [],
      "stateMutability": "nonpayable",
      "type": "function"
    },
    {
      "inputs": [
        {
          "internalType": "string",
          "name": "_id",
          "type": "string"
        }
      ],
      "name": "viewDoctors",
      "outputs": [
        {
          "components": [
            {
              "internalType": "string",
              "name": "name",
              "type": "string"
            },
            {
              "internalType": "uint256",
              "name": "contact",
              "type": "uint256"
            },
            {
              "internalType": "string",
              "name": "id",
              "type": "string"
            },
            {
              "internalType": "string",
              "name": "password",
              "type": "string"
            },
            {
              "internalType": "address",
              "name": "adrr",
              "type": "address"
            }
          ],
          "internalType": "struct healthify.account",
          "name": "",
          "type": "tuple"
        }
      ],
      "stateMutability": "view",
      "type": "function",
      "constant": true
    },
    {
      "inputs": [
        {
          "internalType": "string",
          "name": "_id",
          "type": "string"
        }
      ],
      "name": "viewPatients",
      "outputs": [
        {
          "components": [
            {
              "internalType": "string",
              "name": "name",
              "type": "string"
            },
            {
              "internalType": "uint256",
              "name": "contact",
              "type": "uint256"
            },
            {
              "internalType": "string",
              "name": "id",
              "type": "string"
            },
            {
              "internalType": "string",
              "name": "password",
              "type": "string"
            },
            {
              "internalType": "address",
              "name": "adrr",
              "type": "address"
            }
          ],
          "internalType": "struct healthify.account",
          "name": "",
          "type": "tuple"
        }
      ],
      "stateMutability": "view",
      "type": "function",
      "constant": true
    },
    {
      "inputs": [
        {
          "internalType": "string",
          "name": "_id",
          "type": "string"
        },
        {
          "internalType": "string",
          "name": "_password",
          "type": "string"
        }
      ],
      "name": "doctorSignIn",
      "outputs": [
        {
          "internalType": "bool",
          "name": "",
          "type": "bool"
        }
      ],
      "stateMutability": "view",
      "type": "function",
      "constant": true
    },
    {
      "inputs": [
        {
          "internalType": "string",
          "name": "_id",
          "type": "string"
        },
        {
          "internalType": "uint256",
          "name": "_age",
          "type": "uint256"
        },
        {
          "internalType": "uint256",
          "name": "_weight",
          "type": "uint256"
        },
        {
          "internalType": "uint256",
          "name": "_height",
          "type": "uint256"
        },
        {
          "internalType": "string",
          "name": "_bp",
          "type": "string"
        },
        {
          "internalType": "string",
          "name": "_heartrate",
          "type": "string"
        },
        {
          "internalType": "uint256",
          "name": "_temp",
          "type": "uint256"
        },
        {
          "internalType": "string",
          "name": "_date",
          "type": "string"
        },
        {
          "internalType": "string",
          "name": "_prescription",
          "type": "string"
        }
      ],
      "name": "doctorSubmitDetails",
      "outputs": [],
      "stateMutability": "nonpayable",
      "type": "function"
    },
    {
      "inputs": [
        {
          "internalType": "string",
          "name": "_id",
          "type": "string"
        }
      ],
      "name": "doctorViewDetails",
      "outputs": [
        {
          "components": [
            {
              "internalType": "string",
              "name": "id",
              "type": "string"
            },
            {
              "internalType": "uint256",
              "name": "age",
              "type": "uint256"
            },
            {
              "internalType": "uint256",
              "name": "weight",
              "type": "uint256"
            },
            {
              "internalType": "uint256",
              "name": "height",
              "type": "uint256"
            },
            {
              "internalType": "string",
              "name": "bp",
              "type": "string"
            },
            {
              "internalType": "string",
              "name": "heartrate",
              "type": "string"
            },
            {
              "internalType": "uint256",
              "name": "temp",
              "type": "uint256"
            },
            {
              "internalType": "string",
              "name": "date",
              "type": "string"
            },
            {
              "internalType": "string",
              "name": "prescription",
              "type": "string"
            }
          ],
          "internalType": "struct healthify.DoctorLog[]",
          "name": "",
          "type": "tuple[]"
        }
      ],
      "stateMutability": "view",
      "type": "function",
      "constant": true
    },
    {
      "inputs": [
        {
          "internalType": "uint256",
          "name": "_val",
          "type": "uint256"
        }
      ],
      "name": "setTest",
      "outputs": [],
      "stateMutability": "nonpayable",
      "type": "function"
    },
    {
      "inputs": [],
      "name": "test",
      "outputs": [
        {
          "internalType": "uint256",
          "name": "",
          "type": "uint256"
        }
      ],
      "stateMutability": "view",
      "type": "function",
      "constant": true
    }
  ],
  "bytecode": "0x608060405234801561001057600080fd5b50336000806101000a81548173ffffffffffffffffffffffffffffffffffffffff021916908373ffffffffffffffffffffffffffffffffffffffff160217905550613037806100606000396000f3fe608060405234801561001057600080fd5b50600436106101165760003560e01c80636cf26667116100a2578063920ded1711610071578063920ded1714610345578063c451bb791461037d578063d4966aae146103ad578063ed51c824146103e1578063f8a8fd6d146103fd57610116565b80636cf26667146102ab578063778cb613146102c75780638cc05392146102f75780638da5cb5b1461032757610116565b806353ef30c5116100e957806353ef30c5146101db578063572720341461020f5780635ec7bae41461024357806365e2e8371461025f5780636ca1f9331461028f57610116565b80634655c2bc1461011b57806347bc93a81461014b5780634ef437481461017b57806352e6a02f146101ab575b600080fd5b610135600480360381019061013091906125bf565b61041b565b604051610142919061276e565b60405180910390f35b610165600480360381019061016091906125bf565b6106a5565b604051610172919061276e565b60405180910390f35b610195600480360381019061019091906125bf565b61092f565b6040516101a291906127ab565b60405180910390f35b6101c560048036038101906101c091906127c6565b610965565b6040516101d291906127ab565b60405180910390f35b6101f560048036038101906101f091906125bf565b610ca9565b6040516102069594939291906128a6565b60405180910390f35b6102296004803603810190610224919061293a565b610ead565b60405161023a9594939291906128a6565b60405180910390f35b61025d60048036038101906102589190612967565b6110ab565b005b610279600480360381019061027491906125bf565b611306565b6040516102869190612a22565b60405180910390f35b6102a960048036038101906102a4919061293a565b611334565b005b6102c560048036038101906102c09190612a3d565b61133e565b005b6102e160048036038101906102dc91906125bf565b6114c6565b6040516102ee91906127ab565b60405180910390f35b610311600480360381019061030c91906127c6565b6114fc565b60405161031e91906127ab565b60405180910390f35b61032f611840565b60405161033c9190612b93565b60405180910390f35b61035f600480360381019061035a9190612bae565b611864565b60405161037499989796959493929190612c0a565b60405180910390f35b610397600480360381019061039291906125bf565b611b8d565b6040516103a49190612e5d565b60405180910390f35b6103c760048036038101906103c2919061293a565b611f0d565b6040516103d89594939291906128a6565b60405180910390f35b6103fb60048036038101906103f69190612967565b61210b565b005b610405612366565b6040516104129190612a22565b60405180910390f35b61042361237d565b600115156004836040516104379190612ebb565b908152602001604051809103902060009054906101000a900460ff1615151461045f57600080fd5b60068260405161046f9190612ebb565b90815260200160405180910390206040518060a001604052908160008201805461049890612f01565b80601f01602080910402602001604051908101604052809291908181526020018280546104c490612f01565b80156105115780601f106104e657610100808354040283529160200191610511565b820191906000526020600020905b8154815290600101906020018083116104f457829003601f168201915b505050505081526020016001820154815260200160028201805461053490612f01565b80601f016020809104026020016040519081016040528092919081815260200182805461056090612f01565b80156105ad5780601f10610582576101008083540402835291602001916105ad565b820191906000526020600020905b81548152906001019060200180831161059057829003601f168201915b505050505081526020016003820180546105c690612f01565b80601f01602080910402602001604051908101604052809291908181526020018280546105f290612f01565b801561063f5780601f106106145761010080835404028352916020019161063f565b820191906000526020600020905b81548152906001019060200180831161062257829003601f168201915b505050505081526020016004820160009054906101000a900473ffffffffffffffffffffffffffffffffffffffff1673ffffffffffffffffffffffffffffffffffffffff1673ffffffffffffffffffffffffffffffffffffffff16815250509050919050565b6106ad61237d565b600115156003836040516106c19190612ebb565b908152602001604051809103902060009054906101000a900460ff161515146106e957600080fd5b6006826040516106f99190612ebb565b90815260200160405180910390206040518060a001604052908160008201805461072290612f01565b80601f016020809104026020016040519081016040528092919081815260200182805461074e90612f01565b801561079b5780601f106107705761010080835404028352916020019161079b565b820191906000526020600020905b81548152906001019060200180831161077e57829003601f168201915b50505050508152602001600182015481526020016002820180546107be90612f01565b80601f01602080910402602001604051908101604052809291908181526020018280546107ea90612f01565b80156108375780601f1061080c57610100808354040283529160200191610837565b820191906000526020600020905b81548152906001019060200180831161081a57829003601f168201915b5050505050815260200160038201805461085090612f01565b80601f016020809104026020016040519081016040528092919081815260200182805461087c90612f01565b80156108c95780601f1061089e576101008083540402835291602001916108c9565b820191906000526020600020905b8154815290600101906020018083116108ac57829003601f168201915b505050505081526020016004820160009054906101000a900473ffffffffffffffffffffffffffffffffffffffff1673ffffffffffffffffffffffffffffffffffffffff1673ffffffffffffffffffffffffffffffffffffffff16815250509050919050565b6004818051602081018201805184825260208301602085012081835280955050505050506000915054906101000a900460ff1681565b60006001151560038460405161097b9190612ebb565b908152602001604051809103902060009054906101000a900460ff161515146109a357600080fd5b60006006846040516109b59190612ebb565b90815260200160405180910390206040518060a00160405290816000820180546109de90612f01565b80601f0160208091040260200160405190810160405280929190818152602001828054610a0a90612f01565b8015610a575780601f10610a2c57610100808354040283529160200191610a57565b820191906000526020600020905b815481529060010190602001808311610a3a57829003601f168201915b5050505050815260200160018201548152602001600282018054610a7a90612f01565b80601f0160208091040260200160405190810160405280929190818152602001828054610aa690612f01565b8015610af35780601f10610ac857610100808354040283529160200191610af3565b820191906000526020600020905b815481529060010190602001808311610ad657829003601f168201915b50505050508152602001600382018054610b0c90612f01565b80601f0160208091040260200160405190810160405280929190818152602001828054610b3890612f01565b8015610b855780601f10610b5a57610100808354040283529160200191610b85565b820191906000526020600020905b815481529060010190602001808311610b6857829003601f168201915b505050505081526020016004820160009054906101000a900473ffffffffffffffffffffffffffffffffffffffff1673ffffffffffffffffffffffffffffffffffffffff1673ffffffffffffffffffffffffffffffffffffffff168152505090508060400151604051602001610bfb9190612ebb565b6040516020818303038152906040528051906020012084604051602001610c229190612ebb565b6040516020818303038152906040528051906020012014610c4257600080fd5b8060600151604051602001610c579190612ebb565b6040516020818303038152906040528051906020012083604051602001610c7e9190612ebb565b6040516020818303038152906040528051906020012014610c9e57600080fd5b600191505092915050565b600681805160208101820180518482526020830160208501208183528095505050505050600091509050806000018054610ce290612f01565b80601f0160208091040260200160405190810160405280929190818152602001828054610d0e90612f01565b8015610d5b5780601f10610d3057610100808354040283529160200191610d5b565b820191906000526020600020905b815481529060010190602001808311610d3e57829003601f168201915b505050505090806001015490806002018054610d7690612f01565b80601f0160208091040260200160405190810160405280929190818152602001828054610da290612f01565b8015610def5780601f10610dc457610100808354040283529160200191610def565b820191906000526020600020905b815481529060010190602001808311610dd257829003601f168201915b505050505090806003018054610e0490612f01565b80601f0160208091040260200160405190810160405280929190818152602001828054610e3090612f01565b8015610e7d5780601f10610e5257610100808354040283529160200191610e7d565b820191906000526020600020905b815481529060010190602001808311610e6057829003601f168201915b5050505050908060040160009054906101000a900473ffffffffffffffffffffffffffffffffffffffff16905085565b60028181548110610ebd57600080fd5b9060005260206000209060050201600091509050806000018054610ee090612f01565b80601f0160208091040260200160405190810160405280929190818152602001828054610f0c90612f01565b8015610f595780601f10610f2e57610100808354040283529160200191610f59565b820191906000526020600020905b815481529060010190602001808311610f3c57829003601f168201915b505050505090806001015490806002018054610f7490612f01565b80601f0160208091040260200160405190810160405280929190818152602001828054610fa090612f01565b8015610fed5780601f10610fc257610100808354040283529160200191610fed565b820191906000526020600020905b815481529060010190602001808311610fd057829003601f168201915b50505050509080600301805461100290612f01565b80601f016020809104026020016040519081016040528092919081815260200182805461102e90612f01565b801561107b5780601f106110505761010080835404028352916020019161107b565b820191906000526020600020905b81548152906001019060200180831161105e57829003601f168201915b5050505050908060040160009054906101000a900473ffffffffffffffffffffffffffffffffffffffff16905085565b600015156003836040516110bf9190612ebb565b908152602001604051809103902060009054906101000a900460ff161515146110e757600080fd5b60016003836040516110f99190612ebb565b908152602001604051809103902060006101000a81548160ff02191690831515021790555060006040518060a001604052808681526020018581526020018481526020018381526020013373ffffffffffffffffffffffffffffffffffffffff168152509050600281908060018154018082558091505060019003906000526020600020906005020160009091909190915060008201518160000190805190602001906111a79291906123c2565b506020820151816001015560408201518160020190805190602001906111ce9291906123c2565b5060608201518160030190805190602001906111eb9291906123c2565b5060808201518160040160006101000a81548173ffffffffffffffffffffffffffffffffffffffff021916908373ffffffffffffffffffffffffffffffffffffffff1602179055505050806006846040516112469190612ebb565b908152602001604051809103902060008201518160000190805190602001906112709291906123c2565b506020820151816001015560408201518160020190805190602001906112979291906123c2565b5060608201518160030190805190602001906112b49291906123c2565b5060808201518160040160006101000a81548173ffffffffffffffffffffffffffffffffffffffff021916908373ffffffffffffffffffffffffffffffffffffffff1602179055509050505050505050565b6008818051602081018201805184825260208301602085012081835280955050505050506000915090505481565b8060018190555050565b60006040518061012001604052808b81526020018a815260200189815260200188815260200187815260200186815260200185815260200184815260200183815250905060078a6040516113929190612ebb565b908152602001604051809103902081908060018154018082558091505060019003906000526020600020906009020160009091909190915060008201518160000190805190602001906113e69291906123c2565b5060208201518160010155604082015181600201556060820151816003015560808201518160040190805190602001906114219291906123c2565b5060a082015181600501908051906020019061143e9291906123c2565b5060c0820151816006015560e08201518160070190805190602001906114659291906123c2565b506101008201518160080190805190602001906114839291906123c2565b50505060088a6040516114969190612ebb565b908152602001604051809103902060008154809291906114b590612f62565b919050555050505050505050505050565b6003818051602081018201805184825260208301602085012081835280955050505050506000915054906101000a900460ff1681565b6000600115156004846040516115129190612ebb565b908152602001604051809103902060009054906101000a900460ff1615151461153a57600080fd5b600060068460405161154c9190612ebb565b90815260200160405180910390206040518060a001604052908160008201805461157590612f01565b80601f01602080910402602001604051908101604052809291908181526020018280546115a190612f01565b80156115ee5780601f106115c3576101008083540402835291602001916115ee565b820191906000526020600020905b8154815290600101906020018083116115d157829003601f168201915b505050505081526020016001820154815260200160028201805461161190612f01565b80601f016020809104026020016040519081016040528092919081815260200182805461163d90612f01565b801561168a5780601f1061165f5761010080835404028352916020019161168a565b820191906000526020600020905b81548152906001019060200180831161166d57829003601f168201915b505050505081526020016003820180546116a390612f01565b80601f01602080910402602001604051908101604052809291908181526020018280546116cf90612f01565b801561171c5780601f106116f15761010080835404028352916020019161171c565b820191906000526020600020905b8154815290600101906020018083116116ff57829003601f168201915b505050505081526020016004820160009054906101000a900473ffffffffffffffffffffffffffffffffffffffff1673ffffffffffffffffffffffffffffffffffffffff1673ffffffffffffffffffffffffffffffffffffffff1681525050905080604001516040516020016117929190612ebb565b60405160208183030381529060405280519060200120846040516020016117b99190612ebb565b60405160208183030381529060405280519060200120146117d957600080fd5b80606001516040516020016117ee9190612ebb565b60405160208183030381529060405280519060200120836040516020016118159190612ebb565b604051602081830303815290604052805190602001201461183557600080fd5b600191505092915050565b60008054906101000a900473ffffffffffffffffffffffffffffffffffffffff1681565b600782805160208101820180518482526020830160208501208183528095505050505050818154811061189657600080fd5b9060005260206000209060090201600091509150508060000180546118ba90612f01565b80601f01602080910402602001604051908101604052809291908181526020018280546118e690612f01565b80156119335780601f1061190857610100808354040283529160200191611933565b820191906000526020600020905b81548152906001019060200180831161191657829003601f168201915b50505050509080600101549080600201549080600301549080600401805461195a90612f01565b80601f016020809104026020016040519081016040528092919081815260200182805461198690612f01565b80156119d35780601f106119a8576101008083540402835291602001916119d3565b820191906000526020600020905b8154815290600101906020018083116119b657829003601f168201915b5050505050908060050180546119e890612f01565b80601f0160208091040260200160405190810160405280929190818152602001828054611a1490612f01565b8015611a615780601f10611a3657610100808354040283529160200191611a61565b820191906000526020600020905b815481529060010190602001808311611a4457829003601f168201915b505050505090806006015490806007018054611a7c90612f01565b80601f0160208091040260200160405190810160405280929190818152602001828054611aa890612f01565b8015611af55780601f10611aca57610100808354040283529160200191611af5565b820191906000526020600020905b815481529060010190602001808311611ad857829003601f168201915b505050505090806008018054611b0a90612f01565b80601f0160208091040260200160405190810160405280929190818152602001828054611b3690612f01565b8015611b835780601f10611b5857610100808354040283529160200191611b83565b820191906000526020600020905b815481529060010190602001808311611b6657829003601f168201915b5050505050905089565b6060600782604051611b9f9190612ebb565b9081526020016040518091039020805480602002602001604051908101604052809291908181526020016000905b82821015611f02578382906000526020600020906009020160405180610120016040529081600082018054611c0190612f01565b80601f0160208091040260200160405190810160405280929190818152602001828054611c2d90612f01565b8015611c7a5780601f10611c4f57610100808354040283529160200191611c7a565b820191906000526020600020905b815481529060010190602001808311611c5d57829003601f168201915b50505050508152602001600182015481526020016002820154815260200160038201548152602001600482018054611cb190612f01565b80601f0160208091040260200160405190810160405280929190818152602001828054611cdd90612f01565b8015611d2a5780601f10611cff57610100808354040283529160200191611d2a565b820191906000526020600020905b815481529060010190602001808311611d0d57829003601f168201915b50505050508152602001600582018054611d4390612f01565b80601f0160208091040260200160405190810160405280929190818152602001828054611d6f90612f01565b8015611dbc5780601f10611d9157610100808354040283529160200191611dbc565b820191906000526020600020905b815481529060010190602001808311611d9f57829003601f168201915b5050505050815260200160068201548152602001600782018054611ddf90612f01565b80601f0160208091040260200160405190810160405280929190818152602001828054611e0b90612f01565b8015611e585780601f10611e2d57610100808354040283529160200191611e58565b820191906000526020600020905b815481529060010190602001808311611e3b57829003601f168201915b50505050508152602001600882018054611e7190612f01565b80601f0160208091040260200160405190810160405280929190818152602001828054611e9d90612f01565b8015611eea5780601f10611ebf57610100808354040283529160200191611eea565b820191906000526020600020905b815481529060010190602001808311611ecd57829003601f168201915b50505050508152505081526020019060010190611bcd565b505050509050919050565b60058181548110611f1d57600080fd5b9060005260206000209060050201600091509050806000018054611f4090612f01565b80601f0160208091040260200160405190810160405280929190818152602001828054611f6c90612f01565b8015611fb95780601f10611f8e57610100808354040283529160200191611fb9565b820191906000526020600020905b815481529060010190602001808311611f9c57829003601f168201915b505050505090806001015490806002018054611fd490612f01565b80601f016020809104026020016040519081016040528092919081815260200182805461200090612f01565b801561204d5780601f106120225761010080835404028352916020019161204d565b820191906000526020600020905b81548152906001019060200180831161203057829003601f168201915b50505050509080600301805461206290612f01565b80601f016020809104026020016040519081016040528092919081815260200182805461208e90612f01565b80156120db5780601f106120b0576101008083540402835291602001916120db565b820191906000526020600020905b8154815290600101906020018083116120be57829003601f168201915b5050505050908060040160009054906101000a900473ffffffffffffffffffffffffffffffffffffffff16905085565b6000151560048360405161211f9190612ebb565b908152602001604051809103902060009054906101000a900460ff1615151461214757600080fd5b60016004836040516121599190612ebb565b908152602001604051809103902060006101000a81548160ff02191690831515021790555060006040518060a001604052808681526020018581526020018481526020018381526020013373ffffffffffffffffffffffffffffffffffffffff168152509050600581908060018154018082558091505060019003906000526020600020906005020160009091909190915060008201518160000190805190602001906122079291906123c2565b5060208201518160010155604082015181600201908051906020019061222e9291906123c2565b50606082015181600301908051906020019061224b9291906123c2565b5060808201518160040160006101000a81548173ffffffffffffffffffffffffffffffffffffffff021916908373ffffffffffffffffffffffffffffffffffffffff1602179055505050806006846040516122a69190612ebb565b908152602001604051809103902060008201518160000190805190602001906122d09291906123c2565b506020820151816001015560408201518160020190805190602001906122f79291906123c2565b5060608201518160030190805190602001906123149291906123c2565b5060808201518160040160006101000a81548173ffffffffffffffffffffffffffffffffffffffff021916908373ffffffffffffffffffffffffffffffffffffffff1602179055509050505050505050565b60006103e86001546123789190612fab565b905090565b6040518060a0016040528060608152602001600081526020016060815260200160608152602001600073ffffffffffffffffffffffffffffffffffffffff1681525090565b8280546123ce90612f01565b90600052602060002090601f0160209004810192826123f05760008555612437565b82601f1061240957805160ff1916838001178555612437565b82800160010185558215612437579182015b8281111561243657825182559160200191906001019061241b565b5b5090506124449190612448565b5090565b5b80821115612461576000816000905550600101612449565b5090565b6000604051905090565b600080fd5b600080fd5b600080fd5b600080fd5b6000601f19601f8301169050919050565b7f4e487b7100000000000000000000000000000000000000000000000000000000600052604160045260246000fd5b6124cc82612483565b810181811067ffffffffffffffff821117156124eb576124ea612494565b5b80604052505050565b60006124fe612465565b905061250a82826124c3565b919050565b600067ffffffffffffffff82111561252a57612529612494565b5b61253382612483565b9050602081019050919050565b82818337600083830152505050565b600061256261255d8461250f565b6124f4565b90508281526020810184848401111561257e5761257d61247e565b5b612589848285612540565b509392505050565b600082601f8301126125a6576125a5612479565b5b81356125b684826020860161254f565b91505092915050565b6000602082840312156125d5576125d461246f565b5b600082013567ffffffffffffffff8111156125f3576125f2612474565b5b6125ff84828501612591565b91505092915050565b600081519050919050565b600082825260208201905092915050565b60005b83811015612642578082015181840152602081019050612627565b83811115612651576000848401525b50505050565b600061266282612608565b61266c8185612613565b935061267c818560208601612624565b61268581612483565b840191505092915050565b6000819050919050565b6126a381612690565b82525050565b600073ffffffffffffffffffffffffffffffffffffffff82169050919050565b60006126d4826126a9565b9050919050565b6126e4816126c9565b82525050565b600060a08301600083015184820360008601526127078282612657565b915050602083015161271c602086018261269a565b50604083015184820360408601526127348282612657565b9150506060830151848203606086015261274e8282612657565b915050608083015161276360808601826126db565b508091505092915050565b6000602082019050818103600083015261278881846126ea565b905092915050565b60008115159050919050565b6127a581612790565b82525050565b60006020820190506127c0600083018461279c565b92915050565b600080604083850312156127dd576127dc61246f565b5b600083013567ffffffffffffffff8111156127fb576127fa612474565b5b61280785828601612591565b925050602083013567ffffffffffffffff81111561282857612827612474565b5b61283485828601612591565b9150509250929050565b600082825260208201905092915050565b600061285a82612608565b612864818561283e565b9350612874818560208601612624565b61287d81612483565b840191505092915050565b61289181612690565b82525050565b6128a0816126c9565b82525050565b600060a08201905081810360008301526128c0818861284f565b90506128cf6020830187612888565b81810360408301526128e1818661284f565b905081810360608301526128f5818561284f565b90506129046080830184612897565b9695505050505050565b61291781612690565b811461292257600080fd5b50565b6000813590506129348161290e565b92915050565b6000602082840312156129505761294f61246f565b5b600061295e84828501612925565b91505092915050565b600080600080608085870312156129815761298061246f565b5b600085013567ffffffffffffffff81111561299f5761299e612474565b5b6129ab87828801612591565b94505060206129bc87828801612925565b935050604085013567ffffffffffffffff8111156129dd576129dc612474565b5b6129e987828801612591565b925050606085013567ffffffffffffffff811115612a0a57612a09612474565b5b612a1687828801612591565b91505092959194509250565b6000602082019050612a376000830184612888565b92915050565b60008060008060008060008060006101208a8c031215612a6057612a5f61246f565b5b60008a013567ffffffffffffffff811115612a7e57612a7d612474565b5b612a8a8c828d01612591565b9950506020612a9b8c828d01612925565b9850506040612aac8c828d01612925565b9750506060612abd8c828d01612925565b96505060808a013567ffffffffffffffff811115612ade57612add612474565b5b612aea8c828d01612591565b95505060a08a013567ffffffffffffffff811115612b0b57612b0a612474565b5b612b178c828d01612591565b94505060c0612b288c828d01612925565b93505060e08a013567ffffffffffffffff811115612b4957612b48612474565b5b612b558c828d01612591565b9250506101008a013567ffffffffffffffff811115612b7757612b76612474565b5b612b838c828d01612591565b9150509295985092959850929598565b6000602082019050612ba86000830184612897565b92915050565b60008060408385031215612bc557612bc461246f565b5b600083013567ffffffffffffffff811115612be357612be2612474565b5b612bef85828601612591565b9250506020612c0085828601612925565b9150509250929050565b6000610120820190508181036000830152612c25818c61284f565b9050612c34602083018b612888565b612c41604083018a612888565b612c4e6060830189612888565b8181036080830152612c60818861284f565b905081810360a0830152612c74818761284f565b9050612c8360c0830186612888565b81810360e0830152612c95818561284f565b9050818103610100830152612caa818461284f565b90509a9950505050505050505050565b600081519050919050565b600082825260208201905092915050565b6000819050602082019050919050565b6000610120830160008301518482036000860152612d048282612657565b9150506020830151612d19602086018261269a565b506040830151612d2c604086018261269a565b506060830151612d3f606086018261269a565b5060808301518482036080860152612d578282612657565b91505060a083015184820360a0860152612d718282612657565b91505060c0830151612d8660c086018261269a565b5060e083015184820360e0860152612d9e8282612657565b915050610100830151848203610100860152612dba8282612657565b9150508091505092915050565b6000612dd38383612ce6565b905092915050565b6000602082019050919050565b6000612df382612cba565b612dfd8185612cc5565b935083602082028501612e0f85612cd6565b8060005b85811015612e4b5784840389528151612e2c8582612dc7565b9450612e3783612ddb565b925060208a01995050600181019050612e13565b50829750879550505050505092915050565b60006020820190508181036000830152612e778184612de8565b905092915050565b600081905092915050565b6000612e9582612608565b612e9f8185612e7f565b9350612eaf818560208601612624565b80840191505092915050565b6000612ec78284612e8a565b915081905092915050565b7f4e487b7100000000000000000000000000000000000000000000000000000000600052602260045260246000fd5b60006002820490506001821680612f1957607f821691505b60208210811415612f2d57612f2c612ed2565b5b50919050565b7f4e487b7100000000000000000000000000000000000000000000000000000000600052601160045260246000fd5b6000612f6d82612690565b91507fffffffffffffffffffffffffffffffffffffffffffffffffffffffffffffffff821415612fa057612f9f612f33565b5b600182019050919050565b6000612fb682612690565b9150612fc183612690565b9250827fffffffffffffffffffffffffffffffffffffffffffffffffffffffffffffffff03821115612ff657612ff5612f33565b5b82820190509291505056fea264697066735822122088a23c9040f9710104b3582d73b24bc1c7e0c3ee309cbeb34762f1f69ea54a8264736f6c634300080c0033",
  "immutableReferences": {},
  "source": "// SPDX-License-Identifier: MIT\npragma solidity ^0.8.12;\ncontract healthify{\n    address public owner;//owner\n    uint test_value;//testing\n    struct account{//account for doctor and patient\n        string name;\n        uint contact;\n        string id;\n        string password;\n        address adrr;\n    }\n    struct DoctorLog{ //details logged by doctor\n        string id;\n        uint age;\n        uint weight;\n        uint height;\n        string bp;\n        string heartrate;\n        uint temp;\n        string date;\n        string prescription;\n    }\n    account[] public patient_register;//registered patients\n    mapping (string=>bool) public is_patient_registered;//username of registered patients\n    mapping (string=>bool) public is_doctor_registered;//username of registered doctors\n    account[] public doctor_register;//registered doctors\n    mapping (string=>account) public registered_id;//maps usernames with accounts\n    mapping (string=>DoctorLog[]) public doc_log;//userid=>logs made by doctor\n    mapping (string=>uint) public numberOfRecords;//number of records of a particular patient with id in key\n    constructor(){\n        owner=msg.sender;\n    }\n    function patientSignUp(string memory _name,uint _contact,string memory _id,string memory _password) public{\n        require(is_patient_registered[_id]==false);\n        is_patient_registered[_id]=true;\n        account memory new_patient=account(_name,_contact,_id,_password,msg.sender);\n        patient_register.push(new_patient);\n        registered_id[_id]=new_patient;\n    }\n    function patientSignIn(string memory _id,string memory _password) public view returns(bool){\n        require(is_patient_registered[_id]==true);\n        account memory current_account=registered_id[_id];\n        require(keccak256(abi.encodePacked(_id)) == keccak256(abi.encodePacked(current_account.id)));\n        require(keccak256(abi.encodePacked(_password)) == keccak256(abi.encodePacked(current_account.password)));\n        // require(keccak256(abi.encodePacked(msg.sender)) == keccak256(abi.encodePacked(current_account.adrr)));\n        return true;\n    }\n    function doctorSignUp(string memory _name,uint _contact,string memory _id,string memory _password) public{\n        require(is_doctor_registered[_id]==false);\n        is_doctor_registered[_id]=true;\n        account memory new_doctor=account(_name,_contact,_id,_password,msg.sender);\n        doctor_register.push(new_doctor);\n        registered_id[_id]=new_doctor;\n    }\n    function viewDoctors(string memory _id) public view returns(account memory){//returns doctor's details\n        require(is_doctor_registered[_id]==true);\n        return registered_id[_id];\n    }\n    function viewPatients(string memory _id) public view returns(account memory){//returns patient's details\n        require(is_patient_registered[_id]==true);\n        return registered_id[_id];\n    }\n    function doctorSignIn(string memory _id,string memory _password) public view returns(bool){\n        require(is_doctor_registered[_id]==true);\n        account memory current_account=registered_id[_id];\n        require(keccak256(abi.encodePacked(_id)) == keccak256(abi.encodePacked(current_account.id)));\n        require(keccak256(abi.encodePacked(_password)) == keccak256(abi.encodePacked(current_account.password)));\n        // require(keccak256(abi.encodePacked(msg.sender)) == keccak256(abi.encodePacked(current_account.adrr)));\n        return true;\n    }\n    function doctorSubmitDetails(string memory _id,uint _age,uint  _weight,uint  _height,string memory _bp,string memory _heartrate,uint _temp,string memory _date,string memory _prescription) public {\n        DoctorLog memory new_doctorlog=DoctorLog(_id,_age,_weight,_height,_bp,_heartrate,_temp,_date,_prescription);\n        doc_log[_id].push(new_doctorlog);//is map me jo _id ke aage array of logs hai usme push karo\n        numberOfRecords[_id]++;\n    }\n    function doctorViewDetails(string memory _id) public view returns(DoctorLog[] memory)//for doctor to check patient's details history\n    {\n        return doc_log[_id];\n    }\n    function setTest(uint _val) public {//testing\n        test_value=_val;\n    }\n    function test() public view returns(uint)//testing\n    {\n        return test_value+1000;\n    }\n}",
  "sourcePath": "/Users/swastik2611/Documents/Healthify_React_Solidity/contracts/healthify.sol",
  "compiler": {
    "name": "solc",
    "version": "0.8.12+commit.f00d7308.Emscripten.clang"
  },
  "schemaVersion": "3.4.14",
  "updatedAt": "2023-06-28T10:16:47.123Z",
  "networkType": "ethereum",
  "devdoc": {
    "kind": "dev",
    "methods": {},
    "version": 1
  },
  "userdoc": {
    "kind": "user",
    "methods": {},
    "version": 1
  }
}