{
  "contractName": "healthify",
  "abi": [
    {
      "inputs": [],
      "stateMutability": "nonpayable",
      "type": "constructor"
    },
    {
      "inputs": [
        {
          "internalType": "string",
          "name": "",
          "type": "string"
        },
        {
          "internalType": "uint256",
          "name": "",
          "type": "uint256"
        }
      ],
      "name": "doc_log",
      "outputs": [
        {
          "internalType": "string",
          "name": "id",
          "type": "string"
        },
        {
          "internalType": "uint256",
          "name": "age",
          "type": "uint256"
        },
        {
          "internalType": "uint256",
          "name": "weight",
          "type": "uint256"
        },
        {
          "internalType": "uint256",
          "name": "height",
          "type": "uint256"
        },
        {
          "internalType": "string",
          "name": "bp",
          "type": "string"
        },
        {
          "internalType": "string",
          "name": "heartrate",
          "type": "string"
        },
        {
          "internalType": "uint256",
          "name": "temp",
          "type": "uint256"
        },
        {
          "internalType": "string",
          "name": "date",
          "type": "string"
        },
        {
          "internalType": "string",
          "name": "prescription",
          "type": "string"
        }
      ],
      "stateMutability": "view",
      "type": "function",
      "constant": true
    },
    {
      "inputs": [
        {
          "internalType": "uint256",
          "name": "",
          "type": "uint256"
        }
      ],
      "name": "doctor_register",
      "outputs": [
        {
          "internalType": "string",
          "name": "name",
          "type": "string"
        },
        {
          "internalType": "uint256",
          "name": "contact",
          "type": "uint256"
        },
        {
          "internalType": "string",
          "name": "id",
          "type": "string"
        },
        {
          "internalType": "string",
          "name": "password",
          "type": "string"
        },
        {
          "internalType": "address",
          "name": "adrr",
          "type": "address"
        }
      ],
      "stateMutability": "view",
      "type": "function",
      "constant": true
    },
    {
      "inputs": [
        {
          "internalType": "string",
          "name": "",
          "type": "string"
        }
      ],
      "name": "is_doctor_registered",
      "outputs": [
        {
          "internalType": "bool",
          "name": "",
          "type": "bool"
        }
      ],
      "stateMutability": "view",
      "type": "function",
      "constant": true
    },
    {
      "inputs": [
        {
          "internalType": "string",
          "name": "",
          "type": "string"
        }
      ],
      "name": "is_patient_registered",
      "outputs": [
        {
          "internalType": "bool",
          "name": "",
          "type": "bool"
        }
      ],
      "stateMutability": "view",
      "type": "function",
      "constant": true
    },
    {
      "inputs": [
        {
          "internalType": "string",
          "name": "",
          "type": "string"
        }
      ],
      "name": "numberOfRecords",
      "outputs": [
        {
          "internalType": "uint256",
          "name": "",
          "type": "uint256"
        }
      ],
      "stateMutability": "view",
      "type": "function",
      "constant": true
    },
    {
      "inputs": [],
      "name": "owner",
      "outputs": [
        {
          "internalType": "address",
          "name": "",
          "type": "address"
        }
      ],
      "stateMutability": "view",
      "type": "function",
      "constant": true
    },
    {
      "inputs": [
        {
          "internalType": "uint256",
          "name": "",
          "type": "uint256"
        }
      ],
      "name": "patient_register",
      "outputs": [
        {
          "internalType": "string",
          "name": "name",
          "type": "string"
        },
        {
          "internalType": "uint256",
          "name": "contact",
          "type": "uint256"
        },
        {
          "internalType": "string",
          "name": "id",
          "type": "string"
        },
        {
          "internalType": "string",
          "name": "password",
          "type": "string"
        },
        {
          "internalType": "address",
          "name": "adrr",
          "type": "address"
        }
      ],
      "stateMutability": "view",
      "type": "function",
      "constant": true
    },
    {
      "inputs": [
        {
          "internalType": "string",
          "name": "",
          "type": "string"
        }
      ],
      "name": "registered_id",
      "outputs": [
        {
          "internalType": "string",
          "name": "name",
          "type": "string"
        },
        {
          "internalType": "uint256",
          "name": "contact",
          "type": "uint256"
        },
        {
          "internalType": "string",
          "name": "id",
          "type": "string"
        },
        {
          "internalType": "string",
          "name": "password",
          "type": "string"
        },
        {
          "internalType": "address",
          "name": "adrr",
          "type": "address"
        }
      ],
      "stateMutability": "view",
      "type": "function",
      "constant": true
    },
    {
      "inputs": [
        {
          "internalType": "string",
          "name": "_name",
          "type": "string"
        },
        {
          "internalType": "uint256",
          "name": "_contact",
          "type": "uint256"
        },
        {
          "internalType": "string",
          "name": "_id",
          "type": "string"
        },
        {
          "internalType": "string",
          "name": "_password",
          "type": "string"
        }
      ],
      "name": "patientSignUp",
      "outputs": [],
      "stateMutability": "nonpayable",
      "type": "function"
    },
    {
      "inputs": [
        {
          "internalType": "string",
          "name": "_id",
          "type": "string"
        },
        {
          "internalType": "string",
          "name": "_password",
          "type": "string"
        }
      ],
      "name": "patientSignIn",
      "outputs": [],
      "stateMutability": "view",
      "type": "function",
      "constant": true
    },
    {
      "inputs": [
        {
          "internalType": "string",
          "name": "_name",
          "type": "string"
        },
        {
          "internalType": "uint256",
          "name": "_contact",
          "type": "uint256"
        },
        {
          "internalType": "string",
          "name": "_id",
          "type": "string"
        },
        {
          "internalType": "string",
          "name": "_password",
          "type": "string"
        }
      ],
      "name": "doctorSignUp",
      "outputs": [],
      "stateMutability": "nonpayable",
      "type": "function"
    },
    {
      "inputs": [
        {
          "internalType": "string",
          "name": "_id",
          "type": "string"
        }
      ],
      "name": "viewDoctors",
      "outputs": [
        {
          "components": [
            {
              "internalType": "string",
              "name": "name",
              "type": "string"
            },
            {
              "internalType": "uint256",
              "name": "contact",
              "type": "uint256"
            },
            {
              "internalType": "string",
              "name": "id",
              "type": "string"
            },
            {
              "internalType": "string",
              "name": "password",
              "type": "string"
            },
            {
              "internalType": "address",
              "name": "adrr",
              "type": "address"
            }
          ],
          "internalType": "struct healthify.account",
          "name": "",
          "type": "tuple"
        }
      ],
      "stateMutability": "view",
      "type": "function",
      "constant": true
    },
    {
      "inputs": [
        {
          "internalType": "string",
          "name": "_id",
          "type": "string"
        }
      ],
      "name": "viewPatients",
      "outputs": [
        {
          "components": [
            {
              "internalType": "string",
              "name": "name",
              "type": "string"
            },
            {
              "internalType": "uint256",
              "name": "contact",
              "type": "uint256"
            },
            {
              "internalType": "string",
              "name": "id",
              "type": "string"
            },
            {
              "internalType": "string",
              "name": "password",
              "type": "string"
            },
            {
              "internalType": "address",
              "name": "adrr",
              "type": "address"
            }
          ],
          "internalType": "struct healthify.account",
          "name": "",
          "type": "tuple"
        }
      ],
      "stateMutability": "view",
      "type": "function",
      "constant": true
    },
    {
      "inputs": [
        {
          "internalType": "string",
          "name": "_id",
          "type": "string"
        },
        {
          "internalType": "string",
          "name": "_password",
          "type": "string"
        }
      ],
      "name": "doctorSignIn",
      "outputs": [],
      "stateMutability": "view",
      "type": "function",
      "constant": true
    },
    {
      "inputs": [
        {
          "internalType": "string",
          "name": "_id",
          "type": "string"
        },
        {
          "internalType": "uint256",
          "name": "_age",
          "type": "uint256"
        },
        {
          "internalType": "uint256",
          "name": "_weight",
          "type": "uint256"
        },
        {
          "internalType": "uint256",
          "name": "_height",
          "type": "uint256"
        },
        {
          "internalType": "string",
          "name": "_bp",
          "type": "string"
        },
        {
          "internalType": "string",
          "name": "_heartrate",
          "type": "string"
        },
        {
          "internalType": "uint256",
          "name": "_temp",
          "type": "uint256"
        },
        {
          "internalType": "string",
          "name": "_date",
          "type": "string"
        },
        {
          "internalType": "string",
          "name": "_prescription",
          "type": "string"
        }
      ],
      "name": "doctorSubmitDetails",
      "outputs": [],
      "stateMutability": "nonpayable",
      "type": "function"
    },
    {
      "inputs": [
        {
          "internalType": "string",
          "name": "_id",
          "type": "string"
        }
      ],
      "name": "doctorViewDetails",
      "outputs": [
        {
          "components": [
            {
              "internalType": "string",
              "name": "id",
              "type": "string"
            },
            {
              "internalType": "uint256",
              "name": "age",
              "type": "uint256"
            },
            {
              "internalType": "uint256",
              "name": "weight",
              "type": "uint256"
            },
            {
              "internalType": "uint256",
              "name": "height",
              "type": "uint256"
            },
            {
              "internalType": "string",
              "name": "bp",
              "type": "string"
            },
            {
              "internalType": "string",
              "name": "heartrate",
              "type": "string"
            },
            {
              "internalType": "uint256",
              "name": "temp",
              "type": "uint256"
            },
            {
              "internalType": "string",
              "name": "date",
              "type": "string"
            },
            {
              "internalType": "string",
              "name": "prescription",
              "type": "string"
            }
          ],
          "internalType": "struct healthify.DoctorLog[]",
          "name": "",
          "type": "tuple[]"
        }
      ],
      "stateMutability": "view",
      "type": "function",
      "constant": true
    },
    {
      "inputs": [
        {
          "internalType": "uint256",
          "name": "_val",
          "type": "uint256"
        }
      ],
      "name": "setTest",
      "outputs": [],
      "stateMutability": "nonpayable",
      "type": "function"
    },
    {
      "inputs": [],
      "name": "test",
      "outputs": [
        {
          "internalType": "uint256",
          "name": "",
          "type": "uint256"
        }
      ],
      "stateMutability": "view",
      "type": "function",
      "constant": true
    }
  ],
  "bytecode": "0x608060405234801561001057600080fd5b50336000806101000a81548173ffffffffffffffffffffffffffffffffffffffff021916908373ffffffffffffffffffffffffffffffffffffffff16021790555061311a806100606000396000f3fe608060405234801561001057600080fd5b50600436106101165760003560e01c80636cf26667116100a2578063920ded1711610071578063920ded171461031d578063c451bb7914610355578063d4966aae14610385578063ed51c824146103b9578063f8a8fd6d146103d557610116565b80636cf2666714610297578063778cb613146102b35780638cc05392146102e35780638da5cb5b146102ff57610116565b806353ef30c5116100e957806353ef30c5146101c757806357272034146101fb5780635ec7bae41461022f57806365e2e8371461024b5780636ca1f9331461027b57610116565b80634655c2bc1461011b57806347bc93a81461014b5780634ef437481461017b57806352e6a02f146101ab575b600080fd5b6101356004803603810190610130919061263f565b6103f3565b60405161014291906127ee565b60405180910390f35b6101656004803603810190610160919061263f565b61067d565b60405161017291906127ee565b60405180910390f35b6101956004803603810190610190919061263f565b610907565b6040516101a2919061282b565b60405180910390f35b6101c560048036038101906101c09190612846565b61093d565b005b6101e160048036038101906101dc919061263f565b610cd5565b6040516101f2959493929190612926565b60405180910390f35b610215600480360381019061021091906129ba565b610ed9565b604051610226959493929190612926565b60405180910390f35b610249600480360381019061024491906129e7565b6110d7565b005b6102656004803603810190610260919061263f565b611332565b6040516102729190612aa2565b60405180910390f35b610295600480360381019061029091906129ba565b611360565b005b6102b160048036038101906102ac9190612abd565b61136a565b005b6102cd60048036038101906102c8919061263f565b6114f2565b6040516102da919061282b565b60405180910390f35b6102fd60048036038101906102f89190612846565b611528565b005b6103076118c0565b6040516103149190612c13565b60405180910390f35b61033760048036038101906103329190612c2e565b6118e4565b60405161034c99989796959493929190612c8a565b60405180910390f35b61036f600480360381019061036a919061263f565b611c0d565b60405161037c9190612edd565b60405180910390f35b61039f600480360381019061039a91906129ba565b611f8d565b6040516103b0959493929190612926565b60405180910390f35b6103d360048036038101906103ce91906129e7565b61218b565b005b6103dd6123e6565b6040516103ea9190612aa2565b60405180910390f35b6103fb6123fd565b6001151560048360405161040f9190612f3b565b908152602001604051809103902060009054906101000a900460ff1615151461043757600080fd5b6006826040516104479190612f3b565b90815260200160405180910390206040518060a001604052908160008201805461047090612f81565b80601f016020809104026020016040519081016040528092919081815260200182805461049c90612f81565b80156104e95780601f106104be576101008083540402835291602001916104e9565b820191906000526020600020905b8154815290600101906020018083116104cc57829003601f168201915b505050505081526020016001820154815260200160028201805461050c90612f81565b80601f016020809104026020016040519081016040528092919081815260200182805461053890612f81565b80156105855780601f1061055a57610100808354040283529160200191610585565b820191906000526020600020905b81548152906001019060200180831161056857829003601f168201915b5050505050815260200160038201805461059e90612f81565b80601f01602080910402602001604051908101604052809291908181526020018280546105ca90612f81565b80156106175780601f106105ec57610100808354040283529160200191610617565b820191906000526020600020905b8154815290600101906020018083116105fa57829003601f168201915b505050505081526020016004820160009054906101000a900473ffffffffffffffffffffffffffffffffffffffff1673ffffffffffffffffffffffffffffffffffffffff1673ffffffffffffffffffffffffffffffffffffffff16815250509050919050565b6106856123fd565b600115156003836040516106999190612f3b565b908152602001604051809103902060009054906101000a900460ff161515146106c157600080fd5b6006826040516106d19190612f3b565b90815260200160405180910390206040518060a00160405290816000820180546106fa90612f81565b80601f016020809104026020016040519081016040528092919081815260200182805461072690612f81565b80156107735780601f1061074857610100808354040283529160200191610773565b820191906000526020600020905b81548152906001019060200180831161075657829003601f168201915b505050505081526020016001820154815260200160028201805461079690612f81565b80601f01602080910402602001604051908101604052809291908181526020018280546107c290612f81565b801561080f5780601f106107e45761010080835404028352916020019161080f565b820191906000526020600020905b8154815290600101906020018083116107f257829003601f168201915b5050505050815260200160038201805461082890612f81565b80601f016020809104026020016040519081016040528092919081815260200182805461085490612f81565b80156108a15780601f10610876576101008083540402835291602001916108a1565b820191906000526020600020905b81548152906001019060200180831161088457829003601f168201915b505050505081526020016004820160009054906101000a900473ffffffffffffffffffffffffffffffffffffffff1673ffffffffffffffffffffffffffffffffffffffff1673ffffffffffffffffffffffffffffffffffffffff16815250509050919050565b6004818051602081018201805184825260208301602085012081835280955050505050506000915054906101000a900460ff1681565b600115156003836040516109519190612f3b565b908152602001604051809103902060009054906101000a900460ff1615151461097957600080fd5b600060068360405161098b9190612f3b565b90815260200160405180910390206040518060a00160405290816000820180546109b490612f81565b80601f01602080910402602001604051908101604052809291908181526020018280546109e090612f81565b8015610a2d5780601f10610a0257610100808354040283529160200191610a2d565b820191906000526020600020905b815481529060010190602001808311610a1057829003601f168201915b5050505050815260200160018201548152602001600282018054610a5090612f81565b80601f0160208091040260200160405190810160405280929190818152602001828054610a7c90612f81565b8015610ac95780601f10610a9e57610100808354040283529160200191610ac9565b820191906000526020600020905b815481529060010190602001808311610aac57829003601f168201915b50505050508152602001600382018054610ae290612f81565b80601f0160208091040260200160405190810160405280929190818152602001828054610b0e90612f81565b8015610b5b5780601f10610b3057610100808354040283529160200191610b5b565b820191906000526020600020905b815481529060010190602001808311610b3e57829003601f168201915b505050505081526020016004820160009054906101000a900473ffffffffffffffffffffffffffffffffffffffff1673ffffffffffffffffffffffffffffffffffffffff1673ffffffffffffffffffffffffffffffffffffffff168152505090508060400151604051602001610bd19190612f3b565b6040516020818303038152906040528051906020012083604051602001610bf89190612f3b565b6040516020818303038152906040528051906020012014610c1857600080fd5b8060600151604051602001610c2d9190612f3b565b6040516020818303038152906040528051906020012082604051602001610c549190612f3b565b6040516020818303038152906040528051906020012014610c7457600080fd5b8060800151604051602001610c899190612ffb565b6040516020818303038152906040528051906020012033604051602001610cb09190612ffb565b6040516020818303038152906040528051906020012014610cd057600080fd5b505050565b600681805160208101820180518482526020830160208501208183528095505050505050600091509050806000018054610d0e90612f81565b80601f0160208091040260200160405190810160405280929190818152602001828054610d3a90612f81565b8015610d875780601f10610d5c57610100808354040283529160200191610d87565b820191906000526020600020905b815481529060010190602001808311610d6a57829003601f168201915b505050505090806001015490806002018054610da290612f81565b80601f0160208091040260200160405190810160405280929190818152602001828054610dce90612f81565b8015610e1b5780601f10610df057610100808354040283529160200191610e1b565b820191906000526020600020905b815481529060010190602001808311610dfe57829003601f168201915b505050505090806003018054610e3090612f81565b80601f0160208091040260200160405190810160405280929190818152602001828054610e5c90612f81565b8015610ea95780601f10610e7e57610100808354040283529160200191610ea9565b820191906000526020600020905b815481529060010190602001808311610e8c57829003601f168201915b5050505050908060040160009054906101000a900473ffffffffffffffffffffffffffffffffffffffff16905085565b60028181548110610ee957600080fd5b9060005260206000209060050201600091509050806000018054610f0c90612f81565b80601f0160208091040260200160405190810160405280929190818152602001828054610f3890612f81565b8015610f855780601f10610f5a57610100808354040283529160200191610f85565b820191906000526020600020905b815481529060010190602001808311610f6857829003601f168201915b505050505090806001015490806002018054610fa090612f81565b80601f0160208091040260200160405190810160405280929190818152602001828054610fcc90612f81565b80156110195780601f10610fee57610100808354040283529160200191611019565b820191906000526020600020905b815481529060010190602001808311610ffc57829003601f168201915b50505050509080600301805461102e90612f81565b80601f016020809104026020016040519081016040528092919081815260200182805461105a90612f81565b80156110a75780601f1061107c576101008083540402835291602001916110a7565b820191906000526020600020905b81548152906001019060200180831161108a57829003601f168201915b5050505050908060040160009054906101000a900473ffffffffffffffffffffffffffffffffffffffff16905085565b600015156003836040516110eb9190612f3b565b908152602001604051809103902060009054906101000a900460ff1615151461111357600080fd5b60016003836040516111259190612f3b565b908152602001604051809103902060006101000a81548160ff02191690831515021790555060006040518060a001604052808681526020018581526020018481526020018381526020013373ffffffffffffffffffffffffffffffffffffffff168152509050600281908060018154018082558091505060019003906000526020600020906005020160009091909190915060008201518160000190805190602001906111d3929190612442565b506020820151816001015560408201518160020190805190602001906111fa929190612442565b506060820151816003019080519060200190611217929190612442565b5060808201518160040160006101000a81548173ffffffffffffffffffffffffffffffffffffffff021916908373ffffffffffffffffffffffffffffffffffffffff1602179055505050806006846040516112729190612f3b565b9081526020016040518091039020600082015181600001908051906020019061129c929190612442565b506020820151816001015560408201518160020190805190602001906112c3929190612442565b5060608201518160030190805190602001906112e0929190612442565b5060808201518160040160006101000a81548173ffffffffffffffffffffffffffffffffffffffff021916908373ffffffffffffffffffffffffffffffffffffffff1602179055509050505050505050565b6008818051602081018201805184825260208301602085012081835280955050505050506000915090505481565b8060018190555050565b60006040518061012001604052808b81526020018a815260200189815260200188815260200187815260200186815260200185815260200184815260200183815250905060078a6040516113be9190612f3b565b90815260200160405180910390208190806001815401808255809150506001900390600052602060002090600902016000909190919091506000820151816000019080519060200190611412929190612442565b50602082015181600101556040820151816002015560608201518160030155608082015181600401908051906020019061144d929190612442565b5060a082015181600501908051906020019061146a929190612442565b5060c0820151816006015560e0820151816007019080519060200190611491929190612442565b506101008201518160080190805190602001906114af929190612442565b50505060088a6040516114c29190612f3b565b908152602001604051809103902060008154809291906114e190613045565b919050555050505050505050505050565b6003818051602081018201805184825260208301602085012081835280955050505050506000915054906101000a900460ff1681565b6001151560048360405161153c9190612f3b565b908152602001604051809103902060009054906101000a900460ff1615151461156457600080fd5b60006006836040516115769190612f3b565b90815260200160405180910390206040518060a001604052908160008201805461159f90612f81565b80601f01602080910402602001604051908101604052809291908181526020018280546115cb90612f81565b80156116185780601f106115ed57610100808354040283529160200191611618565b820191906000526020600020905b8154815290600101906020018083116115fb57829003601f168201915b505050505081526020016001820154815260200160028201805461163b90612f81565b80601f016020809104026020016040519081016040528092919081815260200182805461166790612f81565b80156116b45780601f10611689576101008083540402835291602001916116b4565b820191906000526020600020905b81548152906001019060200180831161169757829003601f168201915b505050505081526020016003820180546116cd90612f81565b80601f01602080910402602001604051908101604052809291908181526020018280546116f990612f81565b80156117465780601f1061171b57610100808354040283529160200191611746565b820191906000526020600020905b81548152906001019060200180831161172957829003601f168201915b505050505081526020016004820160009054906101000a900473ffffffffffffffffffffffffffffffffffffffff1673ffffffffffffffffffffffffffffffffffffffff1673ffffffffffffffffffffffffffffffffffffffff1681525050905080604001516040516020016117bc9190612f3b565b60405160208183030381529060405280519060200120836040516020016117e39190612f3b565b604051602081830303815290604052805190602001201461180357600080fd5b80606001516040516020016118189190612f3b565b604051602081830303815290604052805190602001208260405160200161183f9190612f3b565b604051602081830303815290604052805190602001201461185f57600080fd5b80608001516040516020016118749190612ffb565b604051602081830303815290604052805190602001203360405160200161189b9190612ffb565b60405160208183030381529060405280519060200120146118bb57600080fd5b505050565b60008054906101000a900473ffffffffffffffffffffffffffffffffffffffff1681565b600782805160208101820180518482526020830160208501208183528095505050505050818154811061191657600080fd5b90600052602060002090600902016000915091505080600001805461193a90612f81565b80601f016020809104026020016040519081016040528092919081815260200182805461196690612f81565b80156119b35780601f10611988576101008083540402835291602001916119b3565b820191906000526020600020905b81548152906001019060200180831161199657829003601f168201915b5050505050908060010154908060020154908060030154908060040180546119da90612f81565b80601f0160208091040260200160405190810160405280929190818152602001828054611a0690612f81565b8015611a535780601f10611a2857610100808354040283529160200191611a53565b820191906000526020600020905b815481529060010190602001808311611a3657829003601f168201915b505050505090806005018054611a6890612f81565b80601f0160208091040260200160405190810160405280929190818152602001828054611a9490612f81565b8015611ae15780601f10611ab657610100808354040283529160200191611ae1565b820191906000526020600020905b815481529060010190602001808311611ac457829003601f168201915b505050505090806006015490806007018054611afc90612f81565b80601f0160208091040260200160405190810160405280929190818152602001828054611b2890612f81565b8015611b755780601f10611b4a57610100808354040283529160200191611b75565b820191906000526020600020905b815481529060010190602001808311611b5857829003601f168201915b505050505090806008018054611b8a90612f81565b80601f0160208091040260200160405190810160405280929190818152602001828054611bb690612f81565b8015611c035780601f10611bd857610100808354040283529160200191611c03565b820191906000526020600020905b815481529060010190602001808311611be657829003601f168201915b5050505050905089565b6060600782604051611c1f9190612f3b565b9081526020016040518091039020805480602002602001604051908101604052809291908181526020016000905b82821015611f82578382906000526020600020906009020160405180610120016040529081600082018054611c8190612f81565b80601f0160208091040260200160405190810160405280929190818152602001828054611cad90612f81565b8015611cfa5780601f10611ccf57610100808354040283529160200191611cfa565b820191906000526020600020905b815481529060010190602001808311611cdd57829003601f168201915b50505050508152602001600182015481526020016002820154815260200160038201548152602001600482018054611d3190612f81565b80601f0160208091040260200160405190810160405280929190818152602001828054611d5d90612f81565b8015611daa5780601f10611d7f57610100808354040283529160200191611daa565b820191906000526020600020905b815481529060010190602001808311611d8d57829003601f168201915b50505050508152602001600582018054611dc390612f81565b80601f0160208091040260200160405190810160405280929190818152602001828054611def90612f81565b8015611e3c5780601f10611e1157610100808354040283529160200191611e3c565b820191906000526020600020905b815481529060010190602001808311611e1f57829003601f168201915b5050505050815260200160068201548152602001600782018054611e5f90612f81565b80601f0160208091040260200160405190810160405280929190818152602001828054611e8b90612f81565b8015611ed85780601f10611ead57610100808354040283529160200191611ed8565b820191906000526020600020905b815481529060010190602001808311611ebb57829003601f168201915b50505050508152602001600882018054611ef190612f81565b80601f0160208091040260200160405190810160405280929190818152602001828054611f1d90612f81565b8015611f6a5780601f10611f3f57610100808354040283529160200191611f6a565b820191906000526020600020905b815481529060010190602001808311611f4d57829003601f168201915b50505050508152505081526020019060010190611c4d565b505050509050919050565b60058181548110611f9d57600080fd5b9060005260206000209060050201600091509050806000018054611fc090612f81565b80601f0160208091040260200160405190810160405280929190818152602001828054611fec90612f81565b80156120395780601f1061200e57610100808354040283529160200191612039565b820191906000526020600020905b81548152906001019060200180831161201c57829003601f168201915b50505050509080600101549080600201805461205490612f81565b80601f016020809104026020016040519081016040528092919081815260200182805461208090612f81565b80156120cd5780601f106120a2576101008083540402835291602001916120cd565b820191906000526020600020905b8154815290600101906020018083116120b057829003601f168201915b5050505050908060030180546120e290612f81565b80601f016020809104026020016040519081016040528092919081815260200182805461210e90612f81565b801561215b5780601f106121305761010080835404028352916020019161215b565b820191906000526020600020905b81548152906001019060200180831161213e57829003601f168201915b5050505050908060040160009054906101000a900473ffffffffffffffffffffffffffffffffffffffff16905085565b6000151560048360405161219f9190612f3b565b908152602001604051809103902060009054906101000a900460ff161515146121c757600080fd5b60016004836040516121d99190612f3b565b908152602001604051809103902060006101000a81548160ff02191690831515021790555060006040518060a001604052808681526020018581526020018481526020018381526020013373ffffffffffffffffffffffffffffffffffffffff16815250905060058190806001815401808255809150506001900390600052602060002090600502016000909190919091506000820151816000019080519060200190612287929190612442565b506020820151816001015560408201518160020190805190602001906122ae929190612442565b5060608201518160030190805190602001906122cb929190612442565b5060808201518160040160006101000a81548173ffffffffffffffffffffffffffffffffffffffff021916908373ffffffffffffffffffffffffffffffffffffffff1602179055505050806006846040516123269190612f3b565b90815260200160405180910390206000820151816000019080519060200190612350929190612442565b50602082015181600101556040820151816002019080519060200190612377929190612442565b506060820151816003019080519060200190612394929190612442565b5060808201518160040160006101000a81548173ffffffffffffffffffffffffffffffffffffffff021916908373ffffffffffffffffffffffffffffffffffffffff1602179055509050505050505050565b60006103e86001546123f8919061308e565b905090565b6040518060a0016040528060608152602001600081526020016060815260200160608152602001600073ffffffffffffffffffffffffffffffffffffffff1681525090565b82805461244e90612f81565b90600052602060002090601f01602090048101928261247057600085556124b7565b82601f1061248957805160ff19168380011785556124b7565b828001600101855582156124b7579182015b828111156124b657825182559160200191906001019061249b565b5b5090506124c491906124c8565b5090565b5b808211156124e15760008160009055506001016124c9565b5090565b6000604051905090565b600080fd5b600080fd5b600080fd5b600080fd5b6000601f19601f8301169050919050565b7f4e487b7100000000000000000000000000000000000000000000000000000000600052604160045260246000fd5b61254c82612503565b810181811067ffffffffffffffff8211171561256b5761256a612514565b5b80604052505050565b600061257e6124e5565b905061258a8282612543565b919050565b600067ffffffffffffffff8211156125aa576125a9612514565b5b6125b382612503565b9050602081019050919050565b82818337600083830152505050565b60006125e26125dd8461258f565b612574565b9050828152602081018484840111156125fe576125fd6124fe565b5b6126098482856125c0565b509392505050565b600082601f830112612626576126256124f9565b5b81356126368482602086016125cf565b91505092915050565b600060208284031215612655576126546124ef565b5b600082013567ffffffffffffffff811115612673576126726124f4565b5b61267f84828501612611565b91505092915050565b600081519050919050565b600082825260208201905092915050565b60005b838110156126c25780820151818401526020810190506126a7565b838111156126d1576000848401525b50505050565b60006126e282612688565b6126ec8185612693565b93506126fc8185602086016126a4565b61270581612503565b840191505092915050565b6000819050919050565b61272381612710565b82525050565b600073ffffffffffffffffffffffffffffffffffffffff82169050919050565b600061275482612729565b9050919050565b61276481612749565b82525050565b600060a083016000830151848203600086015261278782826126d7565b915050602083015161279c602086018261271a565b50604083015184820360408601526127b482826126d7565b915050606083015184820360608601526127ce82826126d7565b91505060808301516127e3608086018261275b565b508091505092915050565b60006020820190508181036000830152612808818461276a565b905092915050565b60008115159050919050565b61282581612810565b82525050565b6000602082019050612840600083018461281c565b92915050565b6000806040838503121561285d5761285c6124ef565b5b600083013567ffffffffffffffff81111561287b5761287a6124f4565b5b61288785828601612611565b925050602083013567ffffffffffffffff8111156128a8576128a76124f4565b5b6128b485828601612611565b9150509250929050565b600082825260208201905092915050565b60006128da82612688565b6128e481856128be565b93506128f48185602086016126a4565b6128fd81612503565b840191505092915050565b61291181612710565b82525050565b61292081612749565b82525050565b600060a082019050818103600083015261294081886128cf565b905061294f6020830187612908565b818103604083015261296181866128cf565b9050818103606083015261297581856128cf565b90506129846080830184612917565b9695505050505050565b61299781612710565b81146129a257600080fd5b50565b6000813590506129b48161298e565b92915050565b6000602082840312156129d0576129cf6124ef565b5b60006129de848285016129a5565b91505092915050565b60008060008060808587031215612a0157612a006124ef565b5b600085013567ffffffffffffffff811115612a1f57612a1e6124f4565b5b612a2b87828801612611565b9450506020612a3c878288016129a5565b935050604085013567ffffffffffffffff811115612a5d57612a5c6124f4565b5b612a6987828801612611565b925050606085013567ffffffffffffffff811115612a8a57612a896124f4565b5b612a9687828801612611565b91505092959194509250565b6000602082019050612ab76000830184612908565b92915050565b60008060008060008060008060006101208a8c031215612ae057612adf6124ef565b5b60008a013567ffffffffffffffff811115612afe57612afd6124f4565b5b612b0a8c828d01612611565b9950506020612b1b8c828d016129a5565b9850506040612b2c8c828d016129a5565b9750506060612b3d8c828d016129a5565b96505060808a013567ffffffffffffffff811115612b5e57612b5d6124f4565b5b612b6a8c828d01612611565b95505060a08a013567ffffffffffffffff811115612b8b57612b8a6124f4565b5b612b978c828d01612611565b94505060c0612ba88c828d016129a5565b93505060e08a013567ffffffffffffffff811115612bc957612bc86124f4565b5b612bd58c828d01612611565b9250506101008a013567ffffffffffffffff811115612bf757612bf66124f4565b5b612c038c828d01612611565b9150509295985092959850929598565b6000602082019050612c286000830184612917565b92915050565b60008060408385031215612c4557612c446124ef565b5b600083013567ffffffffffffffff811115612c6357612c626124f4565b5b612c6f85828601612611565b9250506020612c80858286016129a5565b9150509250929050565b6000610120820190508181036000830152612ca5818c6128cf565b9050612cb4602083018b612908565b612cc1604083018a612908565b612cce6060830189612908565b8181036080830152612ce081886128cf565b905081810360a0830152612cf481876128cf565b9050612d0360c0830186612908565b81810360e0830152612d1581856128cf565b9050818103610100830152612d2a81846128cf565b90509a9950505050505050505050565b600081519050919050565b600082825260208201905092915050565b6000819050602082019050919050565b6000610120830160008301518482036000860152612d8482826126d7565b9150506020830151612d99602086018261271a565b506040830151612dac604086018261271a565b506060830151612dbf606086018261271a565b5060808301518482036080860152612dd782826126d7565b91505060a083015184820360a0860152612df182826126d7565b91505060c0830151612e0660c086018261271a565b5060e083015184820360e0860152612e1e82826126d7565b915050610100830151848203610100860152612e3a82826126d7565b9150508091505092915050565b6000612e538383612d66565b905092915050565b6000602082019050919050565b6000612e7382612d3a565b612e7d8185612d45565b935083602082028501612e8f85612d56565b8060005b85811015612ecb5784840389528151612eac8582612e47565b9450612eb783612e5b565b925060208a01995050600181019050612e93565b50829750879550505050505092915050565b60006020820190508181036000830152612ef78184612e68565b905092915050565b600081905092915050565b6000612f1582612688565b612f1f8185612eff565b9350612f2f8185602086016126a4565b80840191505092915050565b6000612f478284612f0a565b915081905092915050565b7f4e487b7100000000000000000000000000000000000000000000000000000000600052602260045260246000fd5b60006002820490506001821680612f9957607f821691505b60208210811415612fad57612fac612f52565b5b50919050565b60008160601b9050919050565b6000612fcb82612fb3565b9050919050565b6000612fdd82612fc0565b9050919050565b612ff5612ff082612749565b612fd2565b82525050565b60006130078284612fe4565b60148201915081905092915050565b7f4e487b7100000000000000000000000000000000000000000000000000000000600052601160045260246000fd5b600061305082612710565b91507fffffffffffffffffffffffffffffffffffffffffffffffffffffffffffffffff82141561308357613082613016565b5b600182019050919050565b600061309982612710565b91506130a483612710565b9250827fffffffffffffffffffffffffffffffffffffffffffffffffffffffffffffffff038211156130d9576130d8613016565b5b82820190509291505056fea2646970667358221220b8218d8de22078eff3b155903d1a3ff17e615fb8685d42f60710de4480fee34e64736f6c634300080c0033",
  "immutableReferences": {},
  "source": "// SPDX-License-Identifier: MIT\npragma solidity ^0.8.12;\ncontract healthify{\n    address public owner;//owner\n    uint test_value;//testing\n    struct account{//account for doctor and patient\n        string name;\n        uint contact;\n        string id;\n        string password;\n        address adrr;\n    }\n    struct DoctorLog{ //details logged by doctor\n        string id;\n        uint age;\n        uint weight;\n        uint height;\n        string bp;\n        string heartrate;\n        uint temp;\n        string date;\n        string prescription;\n    }\n    account[] public patient_register;//registered patients\n    mapping (string=>bool) public is_patient_registered;//username of registered patients\n    mapping (string=>bool) public is_doctor_registered;//username of registered doctors\n    account[] public doctor_register;//registered doctors\n    mapping (string=>account) public registered_id;//maps usernames with accounts\n    mapping (string=>DoctorLog[]) public doc_log;//userid=>logs made by doctor\n    mapping (string=>uint) public numberOfRecords;//number of records of a particular patient with id in key\n    constructor(){\n        owner=msg.sender;\n    }\n    function patientSignUp(string memory _name,uint _contact,string memory _id,string memory _password) public{\n        require(is_patient_registered[_id]==false);\n        is_patient_registered[_id]=true;\n        account memory new_patient=account(_name,_contact,_id,_password,msg.sender);\n        patient_register.push(new_patient);\n        registered_id[_id]=new_patient;\n    }\n    function patientSignIn(string memory _id,string memory _password) public view {\n        require(is_patient_registered[_id]==true);\n        account memory current_account=registered_id[_id];\n        require(keccak256(abi.encodePacked(_id)) == keccak256(abi.encodePacked(current_account.id)));\n        require(keccak256(abi.encodePacked(_password)) == keccak256(abi.encodePacked(current_account.password)));\n        require(keccak256(abi.encodePacked(msg.sender)) == keccak256(abi.encodePacked(current_account.adrr)));\n    }\n    function doctorSignUp(string memory _name,uint _contact,string memory _id,string memory _password) public{\n        require(is_doctor_registered[_id]==false);\n        is_doctor_registered[_id]=true;\n        account memory new_doctor=account(_name,_contact,_id,_password,msg.sender);\n        doctor_register.push(new_doctor);\n        registered_id[_id]=new_doctor;\n    }\n    function viewDoctors(string memory _id) public view returns(account memory){//returns doctor's details\n        require(is_doctor_registered[_id]==true);\n        return registered_id[_id];\n    }\n    function viewPatients(string memory _id) public view returns(account memory){//returns patient's details\n        require(is_patient_registered[_id]==true);\n        return registered_id[_id];\n    }\n    function doctorSignIn(string memory _id,string memory _password) public view{\n        require(is_doctor_registered[_id]==true);\n        account memory current_account=registered_id[_id];\n        require(keccak256(abi.encodePacked(_id)) == keccak256(abi.encodePacked(current_account.id)));\n        require(keccak256(abi.encodePacked(_password)) == keccak256(abi.encodePacked(current_account.password)));\n        require(keccak256(abi.encodePacked(msg.sender)) == keccak256(abi.encodePacked(current_account.adrr)));\n    }\n    function doctorSubmitDetails(string memory _id,uint _age,uint  _weight,uint  _height,string memory _bp,string memory _heartrate,uint _temp,string memory _date,string memory _prescription) public {\n        DoctorLog memory new_doctorlog=DoctorLog(_id,_age,_weight,_height,_bp,_heartrate,_temp,_date,_prescription);\n        doc_log[_id].push(new_doctorlog);//is map me jo _id ke aage array of logs hai usme push karo\n        numberOfRecords[_id]++;\n    }\n    function doctorViewDetails(string memory _id) public view returns(DoctorLog[] memory)//for doctor to check patient's details history\n    {\n        return doc_log[_id];\n    }\n    function setTest(uint _val) public {//testing\n        test_value=_val;\n    }\n    function test() public view returns(uint)//testing\n    {\n        return test_value+1000;\n    }\n}",
  "sourcePath": "/Users/swastik2611/Documents/Healthify_React_Solidity/contracts/healthify.sol",
  "compiler": {
    "name": "solc",
    "version": "0.8.12+commit.f00d7308.Emscripten.clang"
  },
  "schemaVersion": "3.4.14",
  "updatedAt": "2023-06-28T09:27:56.889Z",
  "networkType": "ethereum",
  "devdoc": {
    "kind": "dev",
    "methods": {},
    "version": 1
  },
  "userdoc": {
    "kind": "user",
    "methods": {},
    "version": 1
  }
}