{
  "contractName": "healthify",
  "abi": [
    {
      "inputs": [],
      "stateMutability": "nonpayable",
      "type": "constructor"
    },
    {
      "inputs": [
        {
          "internalType": "string",
          "name": "",
          "type": "string"
        },
        {
          "internalType": "uint256",
          "name": "",
          "type": "uint256"
        }
      ],
      "name": "doc_log",
      "outputs": [
        {
          "internalType": "string",
          "name": "id",
          "type": "string"
        },
        {
          "internalType": "uint256",
          "name": "age",
          "type": "uint256"
        },
        {
          "internalType": "uint256",
          "name": "weight",
          "type": "uint256"
        },
        {
          "internalType": "uint256",
          "name": "height",
          "type": "uint256"
        },
        {
          "internalType": "string",
          "name": "bp",
          "type": "string"
        },
        {
          "internalType": "string",
          "name": "heartrate",
          "type": "string"
        },
        {
          "internalType": "uint256",
          "name": "temp",
          "type": "uint256"
        },
        {
          "internalType": "string",
          "name": "date",
          "type": "string"
        },
        {
          "internalType": "string",
          "name": "prescription",
          "type": "string"
        },
        {
          "internalType": "string",
          "name": "report",
          "type": "string"
        }
      ],
      "stateMutability": "view",
      "type": "function",
      "constant": true
    },
    {
      "inputs": [
        {
          "internalType": "uint256",
          "name": "",
          "type": "uint256"
        }
      ],
      "name": "doctor_register",
      "outputs": [
        {
          "internalType": "string",
          "name": "name",
          "type": "string"
        },
        {
          "internalType": "uint256",
          "name": "contact",
          "type": "uint256"
        },
        {
          "internalType": "string",
          "name": "id",
          "type": "string"
        },
        {
          "internalType": "string",
          "name": "password",
          "type": "string"
        },
        {
          "internalType": "address",
          "name": "adrr",
          "type": "address"
        }
      ],
      "stateMutability": "view",
      "type": "function",
      "constant": true
    },
    {
      "inputs": [
        {
          "internalType": "string",
          "name": "",
          "type": "string"
        }
      ],
      "name": "is_doctor_registered",
      "outputs": [
        {
          "internalType": "bool",
          "name": "",
          "type": "bool"
        }
      ],
      "stateMutability": "view",
      "type": "function",
      "constant": true
    },
    {
      "inputs": [
        {
          "internalType": "string",
          "name": "",
          "type": "string"
        }
      ],
      "name": "is_patient_registered",
      "outputs": [
        {
          "internalType": "bool",
          "name": "",
          "type": "bool"
        }
      ],
      "stateMutability": "view",
      "type": "function",
      "constant": true
    },
    {
      "inputs": [
        {
          "internalType": "string",
          "name": "",
          "type": "string"
        }
      ],
      "name": "numberOfRecords",
      "outputs": [
        {
          "internalType": "uint256",
          "name": "",
          "type": "uint256"
        }
      ],
      "stateMutability": "view",
      "type": "function",
      "constant": true
    },
    {
      "inputs": [],
      "name": "owner",
      "outputs": [
        {
          "internalType": "address",
          "name": "",
          "type": "address"
        }
      ],
      "stateMutability": "view",
      "type": "function",
      "constant": true
    },
    {
      "inputs": [
        {
          "internalType": "uint256",
          "name": "",
          "type": "uint256"
        }
      ],
      "name": "patient_register",
      "outputs": [
        {
          "internalType": "string",
          "name": "name",
          "type": "string"
        },
        {
          "internalType": "uint256",
          "name": "contact",
          "type": "uint256"
        },
        {
          "internalType": "string",
          "name": "id",
          "type": "string"
        },
        {
          "internalType": "string",
          "name": "password",
          "type": "string"
        },
        {
          "internalType": "address",
          "name": "adrr",
          "type": "address"
        }
      ],
      "stateMutability": "view",
      "type": "function",
      "constant": true
    },
    {
      "inputs": [
        {
          "internalType": "string",
          "name": "",
          "type": "string"
        }
      ],
      "name": "registered_id",
      "outputs": [
        {
          "internalType": "string",
          "name": "name",
          "type": "string"
        },
        {
          "internalType": "uint256",
          "name": "contact",
          "type": "uint256"
        },
        {
          "internalType": "string",
          "name": "id",
          "type": "string"
        },
        {
          "internalType": "string",
          "name": "password",
          "type": "string"
        },
        {
          "internalType": "address",
          "name": "adrr",
          "type": "address"
        }
      ],
      "stateMutability": "view",
      "type": "function",
      "constant": true
    },
    {
      "inputs": [
        {
          "internalType": "string",
          "name": "_name",
          "type": "string"
        },
        {
          "internalType": "uint256",
          "name": "_contact",
          "type": "uint256"
        },
        {
          "internalType": "string",
          "name": "_id",
          "type": "string"
        },
        {
          "internalType": "string",
          "name": "_password",
          "type": "string"
        }
      ],
      "name": "patientSignUp",
      "outputs": [],
      "stateMutability": "nonpayable",
      "type": "function"
    },
    {
      "inputs": [
        {
          "internalType": "string",
          "name": "_id",
          "type": "string"
        },
        {
          "internalType": "string",
          "name": "_password",
          "type": "string"
        }
      ],
      "name": "patientSignIn",
      "outputs": [
        {
          "internalType": "bool",
          "name": "",
          "type": "bool"
        }
      ],
      "stateMutability": "view",
      "type": "function",
      "constant": true
    },
    {
      "inputs": [
        {
          "internalType": "string",
          "name": "_name",
          "type": "string"
        },
        {
          "internalType": "uint256",
          "name": "_contact",
          "type": "uint256"
        },
        {
          "internalType": "string",
          "name": "_id",
          "type": "string"
        },
        {
          "internalType": "string",
          "name": "_password",
          "type": "string"
        }
      ],
      "name": "doctorSignUp",
      "outputs": [],
      "stateMutability": "nonpayable",
      "type": "function"
    },
    {
      "inputs": [
        {
          "internalType": "string",
          "name": "_id",
          "type": "string"
        }
      ],
      "name": "viewDoctors",
      "outputs": [
        {
          "components": [
            {
              "internalType": "string",
              "name": "name",
              "type": "string"
            },
            {
              "internalType": "uint256",
              "name": "contact",
              "type": "uint256"
            },
            {
              "internalType": "string",
              "name": "id",
              "type": "string"
            },
            {
              "internalType": "string",
              "name": "password",
              "type": "string"
            },
            {
              "internalType": "address",
              "name": "adrr",
              "type": "address"
            }
          ],
          "internalType": "struct healthify.account",
          "name": "",
          "type": "tuple"
        }
      ],
      "stateMutability": "view",
      "type": "function",
      "constant": true
    },
    {
      "inputs": [
        {
          "internalType": "string",
          "name": "_id",
          "type": "string"
        }
      ],
      "name": "viewPatients",
      "outputs": [
        {
          "components": [
            {
              "internalType": "string",
              "name": "name",
              "type": "string"
            },
            {
              "internalType": "uint256",
              "name": "contact",
              "type": "uint256"
            },
            {
              "internalType": "string",
              "name": "id",
              "type": "string"
            },
            {
              "internalType": "string",
              "name": "password",
              "type": "string"
            },
            {
              "internalType": "address",
              "name": "adrr",
              "type": "address"
            }
          ],
          "internalType": "struct healthify.account",
          "name": "",
          "type": "tuple"
        }
      ],
      "stateMutability": "view",
      "type": "function",
      "constant": true
    },
    {
      "inputs": [
        {
          "internalType": "string",
          "name": "_id",
          "type": "string"
        },
        {
          "internalType": "string",
          "name": "_password",
          "type": "string"
        }
      ],
      "name": "doctorSignIn",
      "outputs": [
        {
          "internalType": "bool",
          "name": "",
          "type": "bool"
        }
      ],
      "stateMutability": "view",
      "type": "function",
      "constant": true
    },
    {
      "inputs": [
        {
          "internalType": "string",
          "name": "_id",
          "type": "string"
        },
        {
          "internalType": "uint256",
          "name": "_age",
          "type": "uint256"
        },
        {
          "internalType": "uint256",
          "name": "_weight",
          "type": "uint256"
        },
        {
          "internalType": "uint256",
          "name": "_height",
          "type": "uint256"
        },
        {
          "internalType": "string",
          "name": "_bp",
          "type": "string"
        },
        {
          "internalType": "string",
          "name": "_heartrate",
          "type": "string"
        },
        {
          "internalType": "uint256",
          "name": "_temp",
          "type": "uint256"
        },
        {
          "internalType": "string",
          "name": "_date",
          "type": "string"
        },
        {
          "internalType": "string",
          "name": "_prescription",
          "type": "string"
        },
        {
          "internalType": "string",
          "name": "_report",
          "type": "string"
        }
      ],
      "name": "doctorSubmitDetails",
      "outputs": [],
      "stateMutability": "nonpayable",
      "type": "function"
    },
    {
      "inputs": [
        {
          "internalType": "string",
          "name": "_id",
          "type": "string"
        }
      ],
      "name": "doctorViewDetails",
      "outputs": [
        {
          "components": [
            {
              "internalType": "string",
              "name": "id",
              "type": "string"
            },
            {
              "internalType": "uint256",
              "name": "age",
              "type": "uint256"
            },
            {
              "internalType": "uint256",
              "name": "weight",
              "type": "uint256"
            },
            {
              "internalType": "uint256",
              "name": "height",
              "type": "uint256"
            },
            {
              "internalType": "string",
              "name": "bp",
              "type": "string"
            },
            {
              "internalType": "string",
              "name": "heartrate",
              "type": "string"
            },
            {
              "internalType": "uint256",
              "name": "temp",
              "type": "uint256"
            },
            {
              "internalType": "string",
              "name": "date",
              "type": "string"
            },
            {
              "internalType": "string",
              "name": "prescription",
              "type": "string"
            },
            {
              "internalType": "string",
              "name": "report",
              "type": "string"
            }
          ],
          "internalType": "struct healthify.DoctorLog[]",
          "name": "",
          "type": "tuple[]"
        }
      ],
      "stateMutability": "view",
      "type": "function",
      "constant": true
    },
    {
      "inputs": [
        {
          "internalType": "uint256",
          "name": "_val",
          "type": "uint256"
        }
      ],
      "name": "setTest",
      "outputs": [],
      "stateMutability": "nonpayable",
      "type": "function"
    },
    {
      "inputs": [],
      "name": "test",
      "outputs": [
        {
          "internalType": "uint256",
          "name": "",
          "type": "uint256"
        }
      ],
      "stateMutability": "view",
      "type": "function",
      "constant": true
    }
  ],
  "bytecode": "0x608060405234801561001057600080fd5b50336000806101000a81548173ffffffffffffffffffffffffffffffffffffffff021916908373ffffffffffffffffffffffffffffffffffffffff1602179055506131e0806100606000396000f3fe608060405234801561001057600080fd5b50600436106101165760003560e01c8063778cb613116100a2578063b73b6b3f11610071578063b73b6b3f14610362578063c451bb791461037e578063d4966aae146103ae578063ed51c824146103e2578063f8a8fd6d146103fe57610116565b8063778cb613146102ab5780638cc05392146102db5780638da5cb5b1461030b578063920ded171461032957610116565b806353ef30c5116100e957806353ef30c5146101db578063572720341461020f5780635ec7bae41461024357806365e2e8371461025f5780636ca1f9331461028f57610116565b80634655c2bc1461011b57806347bc93a81461014b5780634ef437481461017b57806352e6a02f146101ab575b600080fd5b61013560048036038101906101309190612705565b61041c565b60405161014291906128b4565b60405180910390f35b61016560048036038101906101609190612705565b6106a6565b60405161017291906128b4565b60405180910390f35b61019560048036038101906101909190612705565b610930565b6040516101a291906128f1565b60405180910390f35b6101c560048036038101906101c0919061290c565b610966565b6040516101d291906128f1565b60405180910390f35b6101f560048036038101906101f09190612705565b610caa565b6040516102069594939291906129ec565b60405180910390f35b61022960048036038101906102249190612a80565b610eae565b60405161023a9594939291906129ec565b60405180910390f35b61025d60048036038101906102589190612aad565b6110ac565b005b61027960048036038101906102749190612705565b611307565b6040516102869190612b68565b60405180910390f35b6102a960048036038101906102a49190612a80565b611335565b005b6102c560048036038101906102c09190612705565b61133f565b6040516102d291906128f1565b60405180910390f35b6102f560048036038101906102f0919061290c565b611375565b60405161030291906128f1565b60405180910390f35b6103136116b9565b6040516103209190612b83565b60405180910390f35b610343600480360381019061033e9190612b9e565b6116dd565b6040516103599a99989796959493929190612bfa565b60405180910390f35b61037c60048036038101906103779190612cc0565b611a94565b005b61039860048036038101906103939190612705565b611c41565b6040516103a59190613006565b60405180910390f35b6103c860048036038101906103c39190612a80565b612053565b6040516103d99594939291906129ec565b60405180910390f35b6103fc60048036038101906103f79190612aad565b612251565b005b6104066124ac565b6040516104139190612b68565b60405180910390f35b6104246124c3565b600115156004836040516104389190613064565b908152602001604051809103902060009054906101000a900460ff1615151461046057600080fd5b6006826040516104709190613064565b90815260200160405180910390206040518060a0016040529081600082018054610499906130aa565b80601f01602080910402602001604051908101604052809291908181526020018280546104c5906130aa565b80156105125780601f106104e757610100808354040283529160200191610512565b820191906000526020600020905b8154815290600101906020018083116104f557829003601f168201915b5050505050815260200160018201548152602001600282018054610535906130aa565b80601f0160208091040260200160405190810160405280929190818152602001828054610561906130aa565b80156105ae5780601f10610583576101008083540402835291602001916105ae565b820191906000526020600020905b81548152906001019060200180831161059157829003601f168201915b505050505081526020016003820180546105c7906130aa565b80601f01602080910402602001604051908101604052809291908181526020018280546105f3906130aa565b80156106405780601f1061061557610100808354040283529160200191610640565b820191906000526020600020905b81548152906001019060200180831161062357829003601f168201915b505050505081526020016004820160009054906101000a900473ffffffffffffffffffffffffffffffffffffffff1673ffffffffffffffffffffffffffffffffffffffff1673ffffffffffffffffffffffffffffffffffffffff16815250509050919050565b6106ae6124c3565b600115156003836040516106c29190613064565b908152602001604051809103902060009054906101000a900460ff161515146106ea57600080fd5b6006826040516106fa9190613064565b90815260200160405180910390206040518060a0016040529081600082018054610723906130aa565b80601f016020809104026020016040519081016040528092919081815260200182805461074f906130aa565b801561079c5780601f106107715761010080835404028352916020019161079c565b820191906000526020600020905b81548152906001019060200180831161077f57829003601f168201915b50505050508152602001600182015481526020016002820180546107bf906130aa565b80601f01602080910402602001604051908101604052809291908181526020018280546107eb906130aa565b80156108385780601f1061080d57610100808354040283529160200191610838565b820191906000526020600020905b81548152906001019060200180831161081b57829003601f168201915b50505050508152602001600382018054610851906130aa565b80601f016020809104026020016040519081016040528092919081815260200182805461087d906130aa565b80156108ca5780601f1061089f576101008083540402835291602001916108ca565b820191906000526020600020905b8154815290600101906020018083116108ad57829003601f168201915b505050505081526020016004820160009054906101000a900473ffffffffffffffffffffffffffffffffffffffff1673ffffffffffffffffffffffffffffffffffffffff1673ffffffffffffffffffffffffffffffffffffffff16815250509050919050565b6004818051602081018201805184825260208301602085012081835280955050505050506000915054906101000a900460ff1681565b60006001151560038460405161097c9190613064565b908152602001604051809103902060009054906101000a900460ff161515146109a457600080fd5b60006006846040516109b69190613064565b90815260200160405180910390206040518060a00160405290816000820180546109df906130aa565b80601f0160208091040260200160405190810160405280929190818152602001828054610a0b906130aa565b8015610a585780601f10610a2d57610100808354040283529160200191610a58565b820191906000526020600020905b815481529060010190602001808311610a3b57829003601f168201915b5050505050815260200160018201548152602001600282018054610a7b906130aa565b80601f0160208091040260200160405190810160405280929190818152602001828054610aa7906130aa565b8015610af45780601f10610ac957610100808354040283529160200191610af4565b820191906000526020600020905b815481529060010190602001808311610ad757829003601f168201915b50505050508152602001600382018054610b0d906130aa565b80601f0160208091040260200160405190810160405280929190818152602001828054610b39906130aa565b8015610b865780601f10610b5b57610100808354040283529160200191610b86565b820191906000526020600020905b815481529060010190602001808311610b6957829003601f168201915b505050505081526020016004820160009054906101000a900473ffffffffffffffffffffffffffffffffffffffff1673ffffffffffffffffffffffffffffffffffffffff1673ffffffffffffffffffffffffffffffffffffffff168152505090508060400151604051602001610bfc9190613064565b6040516020818303038152906040528051906020012084604051602001610c239190613064565b6040516020818303038152906040528051906020012014610c4357600080fd5b8060600151604051602001610c589190613064565b6040516020818303038152906040528051906020012083604051602001610c7f9190613064565b6040516020818303038152906040528051906020012014610c9f57600080fd5b600191505092915050565b600681805160208101820180518482526020830160208501208183528095505050505050600091509050806000018054610ce3906130aa565b80601f0160208091040260200160405190810160405280929190818152602001828054610d0f906130aa565b8015610d5c5780601f10610d3157610100808354040283529160200191610d5c565b820191906000526020600020905b815481529060010190602001808311610d3f57829003601f168201915b505050505090806001015490806002018054610d77906130aa565b80601f0160208091040260200160405190810160405280929190818152602001828054610da3906130aa565b8015610df05780601f10610dc557610100808354040283529160200191610df0565b820191906000526020600020905b815481529060010190602001808311610dd357829003601f168201915b505050505090806003018054610e05906130aa565b80601f0160208091040260200160405190810160405280929190818152602001828054610e31906130aa565b8015610e7e5780601f10610e5357610100808354040283529160200191610e7e565b820191906000526020600020905b815481529060010190602001808311610e6157829003601f168201915b5050505050908060040160009054906101000a900473ffffffffffffffffffffffffffffffffffffffff16905085565b60028181548110610ebe57600080fd5b9060005260206000209060050201600091509050806000018054610ee1906130aa565b80601f0160208091040260200160405190810160405280929190818152602001828054610f0d906130aa565b8015610f5a5780601f10610f2f57610100808354040283529160200191610f5a565b820191906000526020600020905b815481529060010190602001808311610f3d57829003601f168201915b505050505090806001015490806002018054610f75906130aa565b80601f0160208091040260200160405190810160405280929190818152602001828054610fa1906130aa565b8015610fee5780601f10610fc357610100808354040283529160200191610fee565b820191906000526020600020905b815481529060010190602001808311610fd157829003601f168201915b505050505090806003018054611003906130aa565b80601f016020809104026020016040519081016040528092919081815260200182805461102f906130aa565b801561107c5780601f106110515761010080835404028352916020019161107c565b820191906000526020600020905b81548152906001019060200180831161105f57829003601f168201915b5050505050908060040160009054906101000a900473ffffffffffffffffffffffffffffffffffffffff16905085565b600015156003836040516110c09190613064565b908152602001604051809103902060009054906101000a900460ff161515146110e857600080fd5b60016003836040516110fa9190613064565b908152602001604051809103902060006101000a81548160ff02191690831515021790555060006040518060a001604052808681526020018581526020018481526020018381526020013373ffffffffffffffffffffffffffffffffffffffff168152509050600281908060018154018082558091505060019003906000526020600020906005020160009091909190915060008201518160000190805190602001906111a8929190612508565b506020820151816001015560408201518160020190805190602001906111cf929190612508565b5060608201518160030190805190602001906111ec929190612508565b5060808201518160040160006101000a81548173ffffffffffffffffffffffffffffffffffffffff021916908373ffffffffffffffffffffffffffffffffffffffff1602179055505050806006846040516112479190613064565b90815260200160405180910390206000820151816000019080519060200190611271929190612508565b50602082015181600101556040820151816002019080519060200190611298929190612508565b5060608201518160030190805190602001906112b5929190612508565b5060808201518160040160006101000a81548173ffffffffffffffffffffffffffffffffffffffff021916908373ffffffffffffffffffffffffffffffffffffffff1602179055509050505050505050565b6008818051602081018201805184825260208301602085012081835280955050505050506000915090505481565b8060018190555050565b6003818051602081018201805184825260208301602085012081835280955050505050506000915054906101000a900460ff1681565b60006001151560048460405161138b9190613064565b908152602001604051809103902060009054906101000a900460ff161515146113b357600080fd5b60006006846040516113c59190613064565b90815260200160405180910390206040518060a00160405290816000820180546113ee906130aa565b80601f016020809104026020016040519081016040528092919081815260200182805461141a906130aa565b80156114675780601f1061143c57610100808354040283529160200191611467565b820191906000526020600020905b81548152906001019060200180831161144a57829003601f168201915b505050505081526020016001820154815260200160028201805461148a906130aa565b80601f01602080910402602001604051908101604052809291908181526020018280546114b6906130aa565b80156115035780601f106114d857610100808354040283529160200191611503565b820191906000526020600020905b8154815290600101906020018083116114e657829003601f168201915b5050505050815260200160038201805461151c906130aa565b80601f0160208091040260200160405190810160405280929190818152602001828054611548906130aa565b80156115955780601f1061156a57610100808354040283529160200191611595565b820191906000526020600020905b81548152906001019060200180831161157857829003601f168201915b505050505081526020016004820160009054906101000a900473ffffffffffffffffffffffffffffffffffffffff1673ffffffffffffffffffffffffffffffffffffffff1673ffffffffffffffffffffffffffffffffffffffff16815250509050806040015160405160200161160b9190613064565b60405160208183030381529060405280519060200120846040516020016116329190613064565b604051602081830303815290604052805190602001201461165257600080fd5b80606001516040516020016116679190613064565b604051602081830303815290604052805190602001208360405160200161168e9190613064565b60405160208183030381529060405280519060200120146116ae57600080fd5b600191505092915050565b60008054906101000a900473ffffffffffffffffffffffffffffffffffffffff1681565b600782805160208101820180518482526020830160208501208183528095505050505050818154811061170f57600080fd5b90600052602060002090600a020160009150915050806000018054611733906130aa565b80601f016020809104026020016040519081016040528092919081815260200182805461175f906130aa565b80156117ac5780601f10611781576101008083540402835291602001916117ac565b820191906000526020600020905b81548152906001019060200180831161178f57829003601f168201915b5050505050908060010154908060020154908060030154908060040180546117d3906130aa565b80601f01602080910402602001604051908101604052809291908181526020018280546117ff906130aa565b801561184c5780601f106118215761010080835404028352916020019161184c565b820191906000526020600020905b81548152906001019060200180831161182f57829003601f168201915b505050505090806005018054611861906130aa565b80601f016020809104026020016040519081016040528092919081815260200182805461188d906130aa565b80156118da5780601f106118af576101008083540402835291602001916118da565b820191906000526020600020905b8154815290600101906020018083116118bd57829003601f168201915b5050505050908060060154908060070180546118f5906130aa565b80601f0160208091040260200160405190810160405280929190818152602001828054611921906130aa565b801561196e5780601f106119435761010080835404028352916020019161196e565b820191906000526020600020905b81548152906001019060200180831161195157829003601f168201915b505050505090806008018054611983906130aa565b80601f01602080910402602001604051908101604052809291908181526020018280546119af906130aa565b80156119fc5780601f106119d1576101008083540402835291602001916119fc565b820191906000526020600020905b8154815290600101906020018083116119df57829003601f168201915b505050505090806009018054611a11906130aa565b80601f0160208091040260200160405190810160405280929190818152602001828054611a3d906130aa565b8015611a8a5780601f10611a5f57610100808354040283529160200191611a8a565b820191906000526020600020905b815481529060010190602001808311611a6d57829003601f168201915b505050505090508a565b60006040518061014001604052808c81526020018b81526020018a815260200189815260200188815260200187815260200186815260200185815260200184815260200183815250905060078b604051611aee9190613064565b90815260200160405180910390208190806001815401808255809150506001900390600052602060002090600a02016000909190919091506000820151816000019080519060200190611b42929190612508565b506020820151816001015560408201518160020155606082015181600301556080820151816004019080519060200190611b7d929190612508565b5060a0820151816005019080519060200190611b9a929190612508565b5060c0820151816006015560e0820151816007019080519060200190611bc1929190612508565b50610100820151816008019080519060200190611bdf929190612508565b50610120820151816009019080519060200190611bfd929190612508565b50505060088b604051611c109190613064565b90815260200160405180910390206000815480929190611c2f9061310b565b91905055505050505050505050505050565b6060600782604051611c539190613064565b9081526020016040518091039020805480602002602001604051908101604052809291908181526020016000905b8282101561204857838290600052602060002090600a020160405180610140016040529081600082018054611cb5906130aa565b80601f0160208091040260200160405190810160405280929190818152602001828054611ce1906130aa565b8015611d2e5780601f10611d0357610100808354040283529160200191611d2e565b820191906000526020600020905b815481529060010190602001808311611d1157829003601f168201915b50505050508152602001600182015481526020016002820154815260200160038201548152602001600482018054611d65906130aa565b80601f0160208091040260200160405190810160405280929190818152602001828054611d91906130aa565b8015611dde5780601f10611db357610100808354040283529160200191611dde565b820191906000526020600020905b815481529060010190602001808311611dc157829003601f168201915b50505050508152602001600582018054611df7906130aa565b80601f0160208091040260200160405190810160405280929190818152602001828054611e23906130aa565b8015611e705780601f10611e4557610100808354040283529160200191611e70565b820191906000526020600020905b815481529060010190602001808311611e5357829003601f168201915b5050505050815260200160068201548152602001600782018054611e93906130aa565b80601f0160208091040260200160405190810160405280929190818152602001828054611ebf906130aa565b8015611f0c5780601f10611ee157610100808354040283529160200191611f0c565b820191906000526020600020905b815481529060010190602001808311611eef57829003601f168201915b50505050508152602001600882018054611f25906130aa565b80601f0160208091040260200160405190810160405280929190818152602001828054611f51906130aa565b8015611f9e5780601f10611f7357610100808354040283529160200191611f9e565b820191906000526020600020905b815481529060010190602001808311611f8157829003601f168201915b50505050508152602001600982018054611fb7906130aa565b80601f0160208091040260200160405190810160405280929190818152602001828054611fe3906130aa565b80156120305780601f1061200557610100808354040283529160200191612030565b820191906000526020600020905b81548152906001019060200180831161201357829003601f168201915b50505050508152505081526020019060010190611c81565b505050509050919050565b6005818154811061206357600080fd5b9060005260206000209060050201600091509050806000018054612086906130aa565b80601f01602080910402602001604051908101604052809291908181526020018280546120b2906130aa565b80156120ff5780601f106120d4576101008083540402835291602001916120ff565b820191906000526020600020905b8154815290600101906020018083116120e257829003601f168201915b50505050509080600101549080600201805461211a906130aa565b80601f0160208091040260200160405190810160405280929190818152602001828054612146906130aa565b80156121935780601f1061216857610100808354040283529160200191612193565b820191906000526020600020905b81548152906001019060200180831161217657829003601f168201915b5050505050908060030180546121a8906130aa565b80601f01602080910402602001604051908101604052809291908181526020018280546121d4906130aa565b80156122215780601f106121f657610100808354040283529160200191612221565b820191906000526020600020905b81548152906001019060200180831161220457829003601f168201915b5050505050908060040160009054906101000a900473ffffffffffffffffffffffffffffffffffffffff16905085565b600015156004836040516122659190613064565b908152602001604051809103902060009054906101000a900460ff1615151461228d57600080fd5b600160048360405161229f9190613064565b908152602001604051809103902060006101000a81548160ff02191690831515021790555060006040518060a001604052808681526020018581526020018481526020018381526020013373ffffffffffffffffffffffffffffffffffffffff1681525090506005819080600181540180825580915050600190039060005260206000209060050201600090919091909150600082015181600001908051906020019061234d929190612508565b50602082015181600101556040820151816002019080519060200190612374929190612508565b506060820151816003019080519060200190612391929190612508565b5060808201518160040160006101000a81548173ffffffffffffffffffffffffffffffffffffffff021916908373ffffffffffffffffffffffffffffffffffffffff1602179055505050806006846040516123ec9190613064565b90815260200160405180910390206000820151816000019080519060200190612416929190612508565b5060208201518160010155604082015181600201908051906020019061243d929190612508565b50606082015181600301908051906020019061245a929190612508565b5060808201518160040160006101000a81548173ffffffffffffffffffffffffffffffffffffffff021916908373ffffffffffffffffffffffffffffffffffffffff1602179055509050505050505050565b60006103e86001546124be9190613154565b905090565b6040518060a0016040528060608152602001600081526020016060815260200160608152602001600073ffffffffffffffffffffffffffffffffffffffff1681525090565b828054612514906130aa565b90600052602060002090601f016020900481019282612536576000855561257d565b82601f1061254f57805160ff191683800117855561257d565b8280016001018555821561257d579182015b8281111561257c578251825591602001919060010190612561565b5b50905061258a919061258e565b5090565b5b808211156125a757600081600090555060010161258f565b5090565b6000604051905090565b600080fd5b600080fd5b600080fd5b600080fd5b6000601f19601f8301169050919050565b7f4e487b7100000000000000000000000000000000000000000000000000000000600052604160045260246000fd5b612612826125c9565b810181811067ffffffffffffffff82111715612631576126306125da565b5b80604052505050565b60006126446125ab565b90506126508282612609565b919050565b600067ffffffffffffffff8211156126705761266f6125da565b5b612679826125c9565b9050602081019050919050565b82818337600083830152505050565b60006126a86126a384612655565b61263a565b9050828152602081018484840111156126c4576126c36125c4565b5b6126cf848285612686565b509392505050565b600082601f8301126126ec576126eb6125bf565b5b81356126fc848260208601612695565b91505092915050565b60006020828403121561271b5761271a6125b5565b5b600082013567ffffffffffffffff811115612739576127386125ba565b5b612745848285016126d7565b91505092915050565b600081519050919050565b600082825260208201905092915050565b60005b8381101561278857808201518184015260208101905061276d565b83811115612797576000848401525b50505050565b60006127a88261274e565b6127b28185612759565b93506127c281856020860161276a565b6127cb816125c9565b840191505092915050565b6000819050919050565b6127e9816127d6565b82525050565b600073ffffffffffffffffffffffffffffffffffffffff82169050919050565b600061281a826127ef565b9050919050565b61282a8161280f565b82525050565b600060a083016000830151848203600086015261284d828261279d565b915050602083015161286260208601826127e0565b506040830151848203604086015261287a828261279d565b91505060608301518482036060860152612894828261279d565b91505060808301516128a96080860182612821565b508091505092915050565b600060208201905081810360008301526128ce8184612830565b905092915050565b60008115159050919050565b6128eb816128d6565b82525050565b600060208201905061290660008301846128e2565b92915050565b60008060408385031215612923576129226125b5565b5b600083013567ffffffffffffffff811115612941576129406125ba565b5b61294d858286016126d7565b925050602083013567ffffffffffffffff81111561296e5761296d6125ba565b5b61297a858286016126d7565b9150509250929050565b600082825260208201905092915050565b60006129a08261274e565b6129aa8185612984565b93506129ba81856020860161276a565b6129c3816125c9565b840191505092915050565b6129d7816127d6565b82525050565b6129e68161280f565b82525050565b600060a0820190508181036000830152612a068188612995565b9050612a1560208301876129ce565b8181036040830152612a278186612995565b90508181036060830152612a3b8185612995565b9050612a4a60808301846129dd565b9695505050505050565b612a5d816127d6565b8114612a6857600080fd5b50565b600081359050612a7a81612a54565b92915050565b600060208284031215612a9657612a956125b5565b5b6000612aa484828501612a6b565b91505092915050565b60008060008060808587031215612ac757612ac66125b5565b5b600085013567ffffffffffffffff811115612ae557612ae46125ba565b5b612af1878288016126d7565b9450506020612b0287828801612a6b565b935050604085013567ffffffffffffffff811115612b2357612b226125ba565b5b612b2f878288016126d7565b925050606085013567ffffffffffffffff811115612b5057612b4f6125ba565b5b612b5c878288016126d7565b91505092959194509250565b6000602082019050612b7d60008301846129ce565b92915050565b6000602082019050612b9860008301846129dd565b92915050565b60008060408385031215612bb557612bb46125b5565b5b600083013567ffffffffffffffff811115612bd357612bd26125ba565b5b612bdf858286016126d7565b9250506020612bf085828601612a6b565b9150509250929050565b6000610140820190508181036000830152612c15818d612995565b9050612c24602083018c6129ce565b612c31604083018b6129ce565b612c3e606083018a6129ce565b8181036080830152612c508189612995565b905081810360a0830152612c648188612995565b9050612c7360c08301876129ce565b81810360e0830152612c858186612995565b9050818103610100830152612c9a8185612995565b9050818103610120830152612caf8184612995565b90509b9a5050505050505050505050565b6000806000806000806000806000806101408b8d031215612ce457612ce36125b5565b5b60008b013567ffffffffffffffff811115612d0257612d016125ba565b5b612d0e8d828e016126d7565b9a50506020612d1f8d828e01612a6b565b9950506040612d308d828e01612a6b565b9850506060612d418d828e01612a6b565b97505060808b013567ffffffffffffffff811115612d6257612d616125ba565b5b612d6e8d828e016126d7565b96505060a08b013567ffffffffffffffff811115612d8f57612d8e6125ba565b5b612d9b8d828e016126d7565b95505060c0612dac8d828e01612a6b565b94505060e08b013567ffffffffffffffff811115612dcd57612dcc6125ba565b5b612dd98d828e016126d7565b9350506101008b013567ffffffffffffffff811115612dfb57612dfa6125ba565b5b612e078d828e016126d7565b9250506101208b013567ffffffffffffffff811115612e2957612e286125ba565b5b612e358d828e016126d7565b9150509295989b9194979a5092959850565b600081519050919050565b600082825260208201905092915050565b6000819050602082019050919050565b6000610140830160008301518482036000860152612e91828261279d565b9150506020830151612ea660208601826127e0565b506040830151612eb960408601826127e0565b506060830151612ecc60608601826127e0565b5060808301518482036080860152612ee4828261279d565b91505060a083015184820360a0860152612efe828261279d565b91505060c0830151612f1360c08601826127e0565b5060e083015184820360e0860152612f2b828261279d565b915050610100830151848203610100860152612f47828261279d565b915050610120830151848203610120860152612f63828261279d565b9150508091505092915050565b6000612f7c8383612e73565b905092915050565b6000602082019050919050565b6000612f9c82612e47565b612fa68185612e52565b935083602082028501612fb885612e63565b8060005b85811015612ff45784840389528151612fd58582612f70565b9450612fe083612f84565b925060208a01995050600181019050612fbc565b50829750879550505050505092915050565b600060208201905081810360008301526130208184612f91565b905092915050565b600081905092915050565b600061303e8261274e565b6130488185613028565b935061305881856020860161276a565b80840191505092915050565b60006130708284613033565b915081905092915050565b7f4e487b7100000000000000000000000000000000000000000000000000000000600052602260045260246000fd5b600060028204905060018216806130c257607f821691505b602082108114156130d6576130d561307b565b5b50919050565b7f4e487b7100000000000000000000000000000000000000000000000000000000600052601160045260246000fd5b6000613116826127d6565b91507fffffffffffffffffffffffffffffffffffffffffffffffffffffffffffffffff821415613149576131486130dc565b5b600182019050919050565b600061315f826127d6565b915061316a836127d6565b9250827fffffffffffffffffffffffffffffffffffffffffffffffffffffffffffffffff0382111561319f5761319e6130dc565b5b82820190509291505056fea26469706673582212209eca335a92bff7b3ba69533ba231de05a43db707c8256a37f5ffb29a7938c34764736f6c634300080c0033",
  "immutableReferences": {},
  "source": "// SPDX-License-Identifier: MIT\npragma solidity ^0.8.12;\ncontract healthify{\n    address public owner;//owner\n    uint test_value;//testing\n    struct account{//account for doctor and patient\n        string name;\n        uint contact;\n        string id;\n        string password;\n        address adrr;\n    }\n    struct DoctorLog{ //details logged by doctor\n        string id;\n        uint age;\n        uint weight;\n        uint height;\n        string bp;\n        string heartrate;\n        uint temp;\n        string date;\n        string prescription;\n        string report;\n    }\n    account[] public patient_register;//registered patients\n    mapping (string=>bool) public is_patient_registered;//username of registered patients\n    mapping (string=>bool) public is_doctor_registered;//username of registered doctors\n    account[] public doctor_register;//registered doctors\n    mapping (string=>account) public registered_id;//maps usernames with accounts\n    mapping (string=>DoctorLog[]) public doc_log;//userid=>logs made by doctor\n    mapping (string=>uint) public numberOfRecords;//number of records of a particular patient with id in key\n    constructor(){\n        owner=msg.sender;\n    }\n    function patientSignUp(string memory _name,uint _contact,string memory _id,string memory _password) public{\n        require(is_patient_registered[_id]==false);\n        is_patient_registered[_id]=true;\n        account memory new_patient=account(_name,_contact,_id,_password,msg.sender);\n        patient_register.push(new_patient);\n        registered_id[_id]=new_patient;\n    }\n    function patientSignIn(string memory _id,string memory _password) public view returns(bool){\n        require(is_patient_registered[_id]==true);\n        account memory current_account=registered_id[_id];\n        require(keccak256(abi.encodePacked(_id)) == keccak256(abi.encodePacked(current_account.id)));\n        require(keccak256(abi.encodePacked(_password)) == keccak256(abi.encodePacked(current_account.password)));\n        // require(keccak256(abi.encodePacked(msg.sender)) == keccak256(abi.encodePacked(current_account.adrr)));\n        return true;\n    }\n    function doctorSignUp(string memory _name,uint _contact,string memory _id,string memory _password) public{\n        require(is_doctor_registered[_id]==false);\n        is_doctor_registered[_id]=true;\n        account memory new_doctor=account(_name,_contact,_id,_password,msg.sender);\n        doctor_register.push(new_doctor);\n        registered_id[_id]=new_doctor;\n    }\n    function viewDoctors(string memory _id) public view returns(account memory){//returns doctor's details\n        require(is_doctor_registered[_id]==true);\n        return registered_id[_id];\n    }\n    function viewPatients(string memory _id) public view returns(account memory){//returns patient's details\n        require(is_patient_registered[_id]==true);\n        return registered_id[_id];\n    }\n    function doctorSignIn(string memory _id,string memory _password) public view returns(bool){\n        require(is_doctor_registered[_id]==true);\n        account memory current_account=registered_id[_id];\n        require(keccak256(abi.encodePacked(_id)) == keccak256(abi.encodePacked(current_account.id)));\n        require(keccak256(abi.encodePacked(_password)) == keccak256(abi.encodePacked(current_account.password)));\n        // require(keccak256(abi.encodePacked(msg.sender)) == keccak256(abi.encodePacked(current_account.adrr)));\n        return true;\n    }\n    function doctorSubmitDetails(string memory _id,uint _age,uint  _weight,uint  _height,string memory _bp,string memory _heartrate,uint _temp,string memory _date,string memory _prescription,string memory _report) public {\n        DoctorLog memory new_doctorlog=DoctorLog(_id,_age,_weight,_height,_bp,_heartrate,_temp,_date,_prescription,_report);\n        doc_log[_id].push(new_doctorlog);//is map me jo _id ke aage array of logs hai usme push karo\n        numberOfRecords[_id]++;\n    }\n    function doctorViewDetails(string memory _id) public view returns(DoctorLog[] memory)//for doctor to check patient's details history\n    {\n        return doc_log[_id];\n    }\n    function setTest(uint _val) public {//testing\n        test_value=_val;\n    }\n    function test() public view returns(uint)//testing\n    {\n        return test_value+1000;\n    }\n}",
  "sourcePath": "/Users/swastik2611/Documents/Healthify_React_Solidity/contracts/healthify.sol",
  "compiler": {
    "name": "solc",
    "version": "0.8.12+commit.f00d7308.Emscripten.clang"
  },
  "schemaVersion": "3.4.14",
  "updatedAt": "2023-06-29T04:25:38.713Z",
  "networkType": "ethereum",
  "devdoc": {
    "kind": "dev",
    "methods": {},
    "version": 1
  },
  "userdoc": {
    "kind": "user",
    "methods": {},
    "version": 1
  }
}